{
  "_format": "hh-sol-artifact-1",
  "contractName": "AlarmClock",
  "sourceName": "contracts/dispatchers/AlarmClock.sol",
  "abi": [
    {
      "inputs": [],
      "stateMutability": "nonpayable",
      "type": "constructor"
    },
    {
      "anonymous": false,
      "inputs": [
        {
          "indexed": false,
          "internalType": "address",
          "name": "previousAdmin",
          "type": "address"
        },
        {
          "indexed": false,
          "internalType": "address",
          "name": "newAdmin",
          "type": "address"
        }
      ],
      "name": "AdminChanged",
      "type": "event"
    },
    {
      "anonymous": false,
      "inputs": [
        {
          "indexed": true,
          "internalType": "address",
          "name": "beacon",
          "type": "address"
        }
      ],
      "name": "BeaconUpgraded",
      "type": "event"
    },
    {
      "anonymous": false,
      "inputs": [
        {
          "indexed": false,
          "internalType": "uint8",
          "name": "version",
          "type": "uint8"
        }
      ],
      "name": "Initialized",
      "type": "event"
    },
    {
      "anonymous": false,
      "inputs": [
        {
          "indexed": true,
          "internalType": "address",
          "name": "previousOwner",
          "type": "address"
        },
        {
          "indexed": true,
          "internalType": "address",
          "name": "newOwner",
          "type": "address"
        }
      ],
      "name": "OwnershipTransferred",
      "type": "event"
    },
    {
      "anonymous": false,
      "inputs": [
        {
          "indexed": true,
          "internalType": "address",
          "name": "implementation",
          "type": "address"
        }
      ],
      "name": "Upgraded",
      "type": "event"
    },
    {
      "anonymous": false,
      "inputs": [
        {
          "indexed": false,
          "internalType": "address",
          "name": "operator",
          "type": "address"
        },
        {
          "indexed": false,
          "internalType": "bytes32",
          "name": "eventHash",
          "type": "bytes32"
        },
        {
          "indexed": false,
          "internalType": "uint256",
          "name": "alarmTime",
          "type": "uint256"
        },
        {
          "indexed": false,
          "internalType": "uint256",
          "name": "currentTime",
          "type": "uint256"
        }
      ],
      "name": "alarmClockChallenged",
      "type": "event"
    },
    {
      "anonymous": false,
      "inputs": [
        {
          "indexed": false,
          "internalType": "address",
          "name": "operator",
          "type": "address"
        },
        {
          "indexed": false,
          "internalType": "uint256",
          "name": "trustId",
          "type": "uint256"
        },
        {
          "indexed": false,
          "internalType": "uint256",
          "name": "rootKeyId",
          "type": "uint256"
        },
        {
          "indexed": false,
          "internalType": "uint256",
          "name": "alarmTime",
          "type": "uint256"
        },
        {
          "indexed": false,
          "internalType": "uint256",
          "name": "snoozeInterval",
          "type": "uint256"
        },
        {
          "indexed": false,
          "internalType": "uint256",
          "name": "snoozeKeyId",
          "type": "uint256"
        },
        {
          "indexed": false,
          "internalType": "bytes32",
          "name": "eventHash",
          "type": "bytes32"
        }
      ],
      "name": "alarmClockRegistered",
      "type": "event"
    },
    {
      "anonymous": false,
      "inputs": [
        {
          "indexed": false,
          "internalType": "address",
          "name": "operator",
          "type": "address"
        },
        {
          "indexed": false,
          "internalType": "bytes32",
          "name": "eventHash",
          "type": "bytes32"
        },
        {
          "indexed": false,
          "internalType": "uint256",
          "name": "snoozeKeyId",
          "type": "uint256"
        },
        {
          "indexed": false,
          "internalType": "uint256",
          "name": "newAlarmTime",
          "type": "uint256"
        }
      ],
      "name": "alarmClockSnoozed",
      "type": "event"
    },
    {
      "inputs": [
        {
          "internalType": "bytes32",
          "name": "",
          "type": "bytes32"
        }
      ],
      "name": "alarms",
      "outputs": [
        {
          "internalType": "bytes32",
          "name": "eventHash",
          "type": "bytes32"
        },
        {
          "internalType": "uint256",
          "name": "alarmTime",
          "type": "uint256"
        },
        {
          "internalType": "uint256",
          "name": "snoozeInterval",
          "type": "uint256"
        },
        {
          "internalType": "uint256",
          "name": "snoozeKeyId",
          "type": "uint256"
        }
      ],
      "stateMutability": "view",
      "type": "function"
    },
    {
      "inputs": [
        {
          "internalType": "bytes32",
          "name": "eventHash",
          "type": "bytes32"
        }
      ],
      "name": "challengeAlarm",
      "outputs": [],
      "stateMutability": "nonpayable",
      "type": "function"
    },
    {
      "inputs": [
        {
          "internalType": "uint256",
          "name": "rootKeyId",
          "type": "uint256"
        },
        {
          "internalType": "bytes32",
          "name": "description",
          "type": "bytes32"
        },
        {
          "internalType": "uint256",
          "name": "alarmTime",
          "type": "uint256"
        },
        {
          "internalType": "uint256",
          "name": "snoozeInterval",
          "type": "uint256"
        },
        {
          "internalType": "uint256",
          "name": "snoozeKeyId",
          "type": "uint256"
        }
      ],
      "name": "createAlarm",
      "outputs": [
        {
          "internalType": "bytes32",
          "name": "",
          "type": "bytes32"
        }
      ],
      "stateMutability": "nonpayable",
      "type": "function"
    },
    {
      "inputs": [
        {
          "internalType": "address",
          "name": "_Locksmith",
          "type": "address"
        },
        {
          "internalType": "address",
          "name": "_TrustEventLog",
          "type": "address"
        }
      ],
      "name": "initialize",
      "outputs": [],
      "stateMutability": "nonpayable",
      "type": "function"
    },
    {
      "inputs": [],
      "name": "locksmith",
      "outputs": [
        {
          "internalType": "contract ILocksmith",
          "name": "",
          "type": "address"
        }
      ],
      "stateMutability": "view",
      "type": "function"
    },
    {
      "inputs": [],
      "name": "owner",
      "outputs": [
        {
          "internalType": "address",
          "name": "",
          "type": "address"
        }
      ],
      "stateMutability": "view",
      "type": "function"
    },
    {
      "inputs": [],
      "name": "proxiableUUID",
      "outputs": [
        {
          "internalType": "bytes32",
          "name": "",
          "type": "bytes32"
        }
      ],
      "stateMutability": "view",
      "type": "function"
    },
    {
      "inputs": [],
      "name": "renounceOwnership",
      "outputs": [],
      "stateMutability": "nonpayable",
      "type": "function"
    },
    {
      "inputs": [
        {
          "internalType": "bytes32",
          "name": "eventHash",
          "type": "bytes32"
        }
      ],
      "name": "snoozeAlarm",
      "outputs": [
        {
          "internalType": "uint256",
          "name": "",
          "type": "uint256"
        }
      ],
      "stateMutability": "nonpayable",
      "type": "function"
    },
    {
      "inputs": [
        {
          "internalType": "address",
          "name": "newOwner",
          "type": "address"
        }
      ],
      "name": "transferOwnership",
      "outputs": [],
      "stateMutability": "nonpayable",
      "type": "function"
    },
    {
      "inputs": [],
      "name": "trustEventLog",
      "outputs": [
        {
          "internalType": "contract ITrustEventLog",
          "name": "",
          "type": "address"
        }
      ],
      "stateMutability": "view",
      "type": "function"
    },
    {
      "inputs": [
        {
          "internalType": "address",
          "name": "newImplementation",
          "type": "address"
        }
      ],
      "name": "upgradeTo",
      "outputs": [],
      "stateMutability": "nonpayable",
      "type": "function"
    },
    {
      "inputs": [
        {
          "internalType": "address",
          "name": "newImplementation",
          "type": "address"
        },
        {
          "internalType": "bytes",
          "name": "data",
          "type": "bytes"
        }
      ],
      "name": "upgradeToAndCall",
      "outputs": [],
      "stateMutability": "payable",
      "type": "function"
    }
  ],
  "bytecode": "0x60a06040523060805234801561001457600080fd5b5061001d610022565b6100e2565b600054610100900460ff161561008e5760405162461bcd60e51b815260206004820152602760248201527f496e697469616c697a61626c653a20636f6e747261637420697320696e697469604482015266616c697a696e6760c81b606482015260840160405180910390fd5b60005460ff90811610156100e0576000805460ff191660ff9081179091556040519081527f7f26b83ff96e1f2b6a682f133852f6798a09c465da95921460cefb38474024989060200160405180910390a15b565b60805161190c610119600039600081816106e2015281816107220152818161090c0152818161094c01526109df015261190c6000f3fe6080604052600436106100c25760003560e01c80634f1ef2861161007f578063715018a611610059578063715018a61461023e5780638da5cb5b14610253578063c60e3dfc14610271578063f2fde38b1461029157600080fd5b80634f1ef286146101f657806352d1902d146102095780635a2fefef1461021e57600080fd5b8063087edcc5146100c757806313fb817e146100fa5780631610ed921461013257806333ca9aeb146101545780633659cfe6146101b6578063485cc955146101d6575b600080fd5b3480156100d357600080fd5b506100e76100e2366004611427565b6102b1565b6040519081526020015b60405180910390f35b34801561010657600080fd5b5060c95461011a906001600160a01b031681565b6040516001600160a01b0390911681526020016100f1565b34801561013e57600080fd5b5061015261014d366004611427565b610590565b005b34801561016057600080fd5b5061019661016f366004611427565b60cb6020526000908152604090208054600182015460028301546003909301549192909184565b6040805194855260208501939093529183015260608201526080016100f1565b3480156101c257600080fd5b506101526101d1366004611455565b6106d8565b3480156101e257600080fd5b506101526101f1366004611472565b6107b7565b6101526102043660046114f2565b610902565b34801561021557600080fd5b506100e76109d2565b34801561022a57600080fd5b5060ca5461011a906001600160a01b031681565b34801561024a57600080fd5b50610152610a85565b34801561025f57600080fd5b506033546001600160a01b031661011a565b34801561027d57600080fd5b506100e761028c36600461159a565b610a99565b34801561029d57600080fd5b506101526102ac366004611455565b610ecf565b600081815260cb602052604081208054831461030a5760405162461bcd60e51b81526020600482015260136024820152721253959053125117d05310549357d155915395606a1b60448201526064015b60405180910390fd5b60008160020154116103525760405162461bcd60e51b8152602060048201526011602482015270554e534e4f4f5a41424c455f414c41524d60781b6044820152606401610301565b60c954600382015460405163a2155c4f60e01b815233600482015260248101919091526001600160a01b039091169063a2155c4f90604401602060405180830381865afa1580156103a7573d6000803e3d6000fd5b505050506040513d601f19601f820116820180604052508101906103cb91906115ea565b6104065760405162461bcd60e51b815260206004820152600c60248201526b12d15657d393d517d211531160a21b6044820152606401610301565b60ca5460405163264075eb60e11b8152600481018590526001600160a01b0390911690634c80ebd690602401602060405180830381865afa15801561044f573d6000803e3d6000fd5b505050506040513d601f19601f8201168201806040525081019061047391906115ea565b156104ad5760405162461bcd60e51b815260206004820152600a6024820152694f564552534e4f4f5a4560b01b6044820152606401610301565b8060010154421015806104d25750600181015460028201546104cf9042611605565b10155b61050a5760405162461bcd60e51b8152602060048201526009602482015268544f4f5f4541524c5960b81b6044820152606401610301565b8060010154421161051f578060010154610521565b425b81600201546105309190611605565b60018201819055600382015460408051338152602081018790529081019190915260608101919091527fa2fc4bbee1f41c0db0ce3739548fead7aa49fd89bc36479d85f7281994050dd09060800160405180910390a16001015492915050565b600081815260cb60205260409020805482146105e45760405162461bcd60e51b81526020600482015260136024820152721253959053125117d05310549357d155915395606a1b6044820152606401610301565b428160010154111561062b5760405162461bcd60e51b815260206004820152601060248201526f10d2105313115391d157d1905253115160821b6044820152606401610301565b60ca54604051632d6ab0d960e21b8152600481018490526001600160a01b039091169063b5aac36490602401600060405180830381600087803b15801561067157600080fd5b505af1158015610685573d6000803e3d6000fd5b505050506001810154604080513381526020810185905280820192909252426060830152517f97be9d8024b26b4fcc60f88b81d920ca51e9fd8e73d46447afaefe0d43563ed69181900360800190a15050565b6001600160a01b037f00000000000000000000000000000000000000000000000000000000000000001630036107205760405162461bcd60e51b815260040161030190611626565b7f00000000000000000000000000000000000000000000000000000000000000006001600160a01b0316610769600080516020611890833981519152546001600160a01b031690565b6001600160a01b03161461078f5760405162461bcd60e51b815260040161030190611672565b61079881610f45565b604080516000808252602082019092526107b491839190610f4d565b50565b600054610100900460ff16158080156107d75750600054600160ff909116105b806107f15750303b1580156107f1575060005460ff166001145b6108545760405162461bcd60e51b815260206004820152602e60248201527f496e697469616c697a61626c653a20636f6e747261637420697320616c72656160448201526d191e481a5b9a5d1a585b1a5e995960921b6064820152608401610301565b6000805460ff191660011790558015610877576000805461ff0019166101001790555b61087f6110b8565b6108876110e7565b60ca80546001600160a01b038085166001600160a01b03199283161790925560c980549286169290911691909117905580156108fd576000805461ff0019169055604051600181527f7f26b83ff96e1f2b6a682f133852f6798a09c465da95921460cefb38474024989060200160405180910390a15b505050565b6001600160a01b037f000000000000000000000000000000000000000000000000000000000000000016300361094a5760405162461bcd60e51b815260040161030190611626565b7f00000000000000000000000000000000000000000000000000000000000000006001600160a01b0316610993600080516020611890833981519152546001600160a01b031690565b6001600160a01b0316146109b95760405162461bcd60e51b815260040161030190611672565b6109c282610f45565b6109ce82826001610f4d565b5050565b6000306001600160a01b037f00000000000000000000000000000000000000000000000000000000000000001614610a725760405162461bcd60e51b815260206004820152603860248201527f555550535570677261646561626c653a206d757374206e6f742062652063616c60448201527f6c6564207468726f7567682064656c656761746563616c6c00000000000000006064820152608401610301565b5060008051602061189083398151915290565b610a8d61110e565b610a976000611168565b565b60008060c960009054906101000a90046001600160a01b03166001600160a01b031663b83ac19f6040518163ffffffff1660e01b8152600401602060405180830381865afa158015610aef573d6000803e3d6000fd5b505050506040513d601f19601f82011682018060405250810190610b1391906116be565b604051630f5d2cd560e11b815233600482015260248101899052600060448201526001600160a01b039190911690631eba59aa90606401602060405180830381865afa158015610b67573d6000803e3d6000fd5b505050506040513d601f19601f82011682018060405250810190610b8b91906116db565b11610bc75760405162461bcd60e51b815260206004820152600c60248201526b12d15657d393d517d211531160a21b6044820152606401610301565b60c9546040516344766d2960e11b815260048101889052600091829182916001600160a01b0316906388ecda5290602401600060405180830381865afa158015610c15573d6000803e3d6000fd5b505050506040513d6000823e601f3d908101601f19168201604052610c3d91908101906116f4565b509350935050925080610c815760405162461bcd60e51b815260206004820152600c60248201526b12d15657d393d517d493d3d560a21b6044820152606401610301565b8515610d5d5760c9546040516344766d2960e11b81526004810187905260009182916001600160a01b03909116906388ecda5290602401600060405180830381865afa158015610cd5573d6000803e3d6000fd5b505050506040513d6000823e601f3d908101601f19168201604052610cfd91908101906116f4565b50509250509150848015610d0e5750815b8015610d1957508084145b610d5a5760405162461bcd60e51b8152602060048201526012602482015271494e56414c49445f534e4f4f5a455f4b455960701b6044820152606401610301565b50505b60ca546040805160208082018d90528183018c9052606082018b9052608082018a905260a08083018a90528351808403909101815260c08301938490528051910120638942e58560e01b90925260c4810185905260e481019190915261010481018a90526000916001600160a01b031690638942e58590610124016020604051808303816000875af1158015610df7573d6000803e3d6000fd5b505050506040513d601f19601f82011682018060405250810190610e1b91906116db565b604080516080808201835283825260208083018d81528385018d815260608086018e8152600089815260cb8652889020965187559251600187015590516002860155905160039094019390935583513381529081018890529283018e90529082018b9052810189905260a0810188905260c081018290529091507f5378c0f855cfb74215688e7d2565f6cb7ba7e537a232cead346ce012e16efcf59060e00160405180910390a19998505050505050505050565b610ed761110e565b6001600160a01b038116610f3c5760405162461bcd60e51b815260206004820152602660248201527f4f776e61626c653a206e6577206f776e657220697320746865207a65726f206160448201526564647265737360d01b6064820152608401610301565b6107b481611168565b6107b461110e565b7f4910fdfa16fed3260ed0e7147f7cc6da11a60208b5b9406d12a635614ffd91435460ff1615610f80576108fd836111ba565b826001600160a01b03166352d1902d6040518163ffffffff1660e01b8152600401602060405180830381865afa925050508015610fda575060408051601f3d908101601f19168201909252610fd7918101906116db565b60015b61103d5760405162461bcd60e51b815260206004820152602e60248201527f45524331393637557067726164653a206e657720696d706c656d656e7461746960448201526d6f6e206973206e6f74205555505360901b6064820152608401610301565b60008051602061189083398151915281146110ac5760405162461bcd60e51b815260206004820152602960248201527f45524331393637557067726164653a20756e737570706f727465642070726f786044820152681a58589b195555525160ba1b6064820152608401610301565b506108fd838383611256565b600054610100900460ff166110df5760405162461bcd60e51b8152600401610301906117d1565b610a97611281565b600054610100900460ff16610a975760405162461bcd60e51b8152600401610301906117d1565b6033546001600160a01b03163314610a975760405162461bcd60e51b815260206004820181905260248201527f4f776e61626c653a2063616c6c6572206973206e6f7420746865206f776e65726044820152606401610301565b603380546001600160a01b038381166001600160a01b0319831681179093556040519116919082907f8be0079c531659141344cd1fd0a4f28419497f9722a3daafe3b4186f6b6457e090600090a35050565b6001600160a01b0381163b6112275760405162461bcd60e51b815260206004820152602d60248201527f455243313936373a206e657720696d706c656d656e746174696f6e206973206e60448201526c1bdd08184818dbdb9d1c9858dd609a1b6064820152608401610301565b60008051602061189083398151915280546001600160a01b0319166001600160a01b0392909216919091179055565b61125f836112b1565b60008251118061126c5750805b156108fd5761127b83836112f1565b50505050565b600054610100900460ff166112a85760405162461bcd60e51b8152600401610301906117d1565b610a9733611168565b6112ba816111ba565b6040516001600160a01b038216907fbc7cd75a20ee27fd9adebab32041f755214dbc6bffa90cc0225b39da2e5c2d3b90600090a250565b60606001600160a01b0383163b6113595760405162461bcd60e51b815260206004820152602660248201527f416464726573733a2064656c65676174652063616c6c20746f206e6f6e2d636f6044820152651b9d1c9858dd60d21b6064820152608401610301565b600080846001600160a01b0316846040516113749190611840565b600060405180830381855af49150503d80600081146113af576040519150601f19603f3d011682016040523d82523d6000602084013e6113b4565b606091505b50915091506113dc82826040518060600160405280602781526020016118b0602791396113e7565b925050505b92915050565b606083156113f6575081611420565b8251156114065782518084602001fd5b8160405162461bcd60e51b8152600401610301919061185c565b9392505050565b60006020828403121561143957600080fd5b5035919050565b6001600160a01b03811681146107b457600080fd5b60006020828403121561146757600080fd5b813561142081611440565b6000806040838503121561148557600080fd5b823561149081611440565b915060208301356114a081611440565b809150509250929050565b634e487b7160e01b600052604160045260246000fd5b604051601f8201601f1916810167ffffffffffffffff811182821017156114ea576114ea6114ab565b604052919050565b6000806040838503121561150557600080fd5b823561151081611440565b915060208381013567ffffffffffffffff8082111561152e57600080fd5b818601915086601f83011261154257600080fd5b813581811115611554576115546114ab565b611566601f8201601f191685016114c1565b9150808252878482850101111561157c57600080fd5b80848401858401376000848284010152508093505050509250929050565b600080600080600060a086880312156115b257600080fd5b505083359560208501359550604085013594606081013594506080013592509050565b805180151581146115e557600080fd5b919050565b6000602082840312156115fc57600080fd5b611420826115d5565b808201808211156113e157634e487b7160e01b600052601160045260246000fd5b6020808252602c908201527f46756e6374696f6e206d7573742062652063616c6c6564207468726f7567682060408201526b19195b1959d85d1958d85b1b60a21b606082015260800190565b6020808252602c908201527f46756e6374696f6e206d7573742062652063616c6c6564207468726f7567682060408201526b6163746976652070726f787960a01b606082015260800190565b6000602082840312156116d057600080fd5b815161142081611440565b6000602082840312156116ed57600080fd5b5051919050565b600080600080600060a0868803121561170c57600080fd5b611715866115d5565b9450602080870151945060408701519350611732606088016115d5565b9250608087015167ffffffffffffffff8082111561174f57600080fd5b818901915089601f83011261176357600080fd5b815181811115611775576117756114ab565b8060051b91506117868483016114c1565b818152918301840191848101908c8411156117a057600080fd5b938501935b838510156117be578451825293850193908501906117a5565b8096505050505050509295509295909350565b6020808252602b908201527f496e697469616c697a61626c653a20636f6e7472616374206973206e6f74206960408201526a6e697469616c697a696e6760a81b606082015260800190565b60005b8381101561183757818101518382015260200161181f565b50506000910152565b6000825161185281846020870161181c565b9190910192915050565b602081526000825180602084015261187b81604085016020870161181c565b601f01601f1916919091016040019291505056fe360894a13ba1a3210667c828492db98dca3e2076cc3735a920a3ca505d382bbc416464726573733a206c6f772d6c6576656c2064656c65676174652063616c6c206661696c6564a2646970667358221220ec54cc78d6e8790bb8fa345b4fb4b0acbcc3d388c449e41cec1c01b7aa8e67e264736f6c63430008100033",
  "linkReferences": {},
  "deployedLinkReferences": {}
}