{
  "_format": "hh-sol-artifact-1",
  "contractName": "AlarmClock",
  "sourceName": "contracts/dispatchers/AlarmClock.sol",
  "abi": [
    {
      "inputs": [],
      "stateMutability": "nonpayable",
      "type": "constructor"
    },
    {
      "anonymous": false,
      "inputs": [
        {
          "indexed": false,
          "internalType": "address",
          "name": "previousAdmin",
          "type": "address"
        },
        {
          "indexed": false,
          "internalType": "address",
          "name": "newAdmin",
          "type": "address"
        }
      ],
      "name": "AdminChanged",
      "type": "event"
    },
    {
      "anonymous": false,
      "inputs": [
        {
          "indexed": true,
          "internalType": "address",
          "name": "beacon",
          "type": "address"
        }
      ],
      "name": "BeaconUpgraded",
      "type": "event"
    },
    {
      "anonymous": false,
      "inputs": [
        {
          "indexed": false,
          "internalType": "uint8",
          "name": "version",
          "type": "uint8"
        }
      ],
      "name": "Initialized",
      "type": "event"
    },
    {
      "anonymous": false,
      "inputs": [
        {
          "indexed": true,
          "internalType": "address",
          "name": "previousOwner",
          "type": "address"
        },
        {
          "indexed": true,
          "internalType": "address",
          "name": "newOwner",
          "type": "address"
        }
      ],
      "name": "OwnershipTransferred",
      "type": "event"
    },
    {
      "anonymous": false,
      "inputs": [
        {
          "indexed": true,
          "internalType": "address",
          "name": "implementation",
          "type": "address"
        }
      ],
      "name": "Upgraded",
      "type": "event"
    },
    {
      "anonymous": false,
      "inputs": [
        {
          "indexed": false,
          "internalType": "address",
          "name": "operator",
          "type": "address"
        },
        {
          "indexed": false,
          "internalType": "bytes32",
          "name": "eventHash",
          "type": "bytes32"
        },
        {
          "indexed": false,
          "internalType": "uint256",
          "name": "alarmTime",
          "type": "uint256"
        },
        {
          "indexed": false,
          "internalType": "uint256",
          "name": "currentTime",
          "type": "uint256"
        }
      ],
      "name": "alarmClockChallenged",
      "type": "event"
    },
    {
      "anonymous": false,
      "inputs": [
        {
          "indexed": false,
          "internalType": "address",
          "name": "operator",
          "type": "address"
        },
        {
          "indexed": false,
          "internalType": "uint256",
          "name": "trustId",
          "type": "uint256"
        },
        {
          "indexed": false,
          "internalType": "uint256",
          "name": "rootKeyId",
          "type": "uint256"
        },
        {
          "indexed": false,
          "internalType": "uint256",
          "name": "alarmTime",
          "type": "uint256"
        },
        {
          "indexed": false,
          "internalType": "uint256",
          "name": "snoozeInterval",
          "type": "uint256"
        },
        {
          "indexed": false,
          "internalType": "uint256",
          "name": "snoozeKeyId",
          "type": "uint256"
        },
        {
          "indexed": false,
          "internalType": "bytes32",
          "name": "eventHash",
          "type": "bytes32"
        }
      ],
      "name": "alarmClockRegistered",
      "type": "event"
    },
    {
      "anonymous": false,
      "inputs": [
        {
          "indexed": false,
          "internalType": "address",
          "name": "operator",
          "type": "address"
        },
        {
          "indexed": false,
          "internalType": "bytes32",
          "name": "eventHash",
          "type": "bytes32"
        },
        {
          "indexed": false,
          "internalType": "uint256",
          "name": "snoozeKeyId",
          "type": "uint256"
        },
        {
          "indexed": false,
          "internalType": "uint256",
          "name": "newAlarmTime",
          "type": "uint256"
        }
      ],
      "name": "alarmClockSnoozed",
      "type": "event"
    },
    {
      "inputs": [
        {
          "internalType": "bytes32",
          "name": "",
          "type": "bytes32"
        }
      ],
      "name": "alarms",
      "outputs": [
        {
          "internalType": "bytes32",
          "name": "eventHash",
          "type": "bytes32"
        },
        {
          "internalType": "uint256",
          "name": "alarmTime",
          "type": "uint256"
        },
        {
          "internalType": "uint256",
          "name": "snoozeInterval",
          "type": "uint256"
        },
        {
          "internalType": "uint256",
          "name": "snoozeKeyId",
          "type": "uint256"
        }
      ],
      "stateMutability": "view",
      "type": "function"
    },
    {
      "inputs": [
        {
          "internalType": "bytes32",
          "name": "eventHash",
          "type": "bytes32"
        }
      ],
      "name": "challengeAlarm",
      "outputs": [],
      "stateMutability": "nonpayable",
      "type": "function"
    },
    {
      "inputs": [
        {
          "internalType": "uint256",
          "name": "rootKeyId",
          "type": "uint256"
        },
        {
          "internalType": "bytes32",
          "name": "description",
          "type": "bytes32"
        },
        {
          "internalType": "uint256",
          "name": "alarmTime",
          "type": "uint256"
        },
        {
          "internalType": "uint256",
          "name": "snoozeInterval",
          "type": "uint256"
        },
        {
          "internalType": "uint256",
          "name": "snoozeKeyId",
          "type": "uint256"
        }
      ],
      "name": "createAlarm",
      "outputs": [
        {
          "internalType": "bytes32",
          "name": "",
          "type": "bytes32"
        }
      ],
      "stateMutability": "nonpayable",
      "type": "function"
    },
    {
      "inputs": [
        {
          "internalType": "address",
          "name": "_Locksmith",
          "type": "address"
        },
        {
          "internalType": "address",
          "name": "_TrustEventLog",
          "type": "address"
        }
      ],
      "name": "initialize",
      "outputs": [],
      "stateMutability": "nonpayable",
      "type": "function"
    },
    {
      "inputs": [],
      "name": "locksmith",
      "outputs": [
        {
          "internalType": "contract ILocksmith",
          "name": "",
          "type": "address"
        }
      ],
      "stateMutability": "view",
      "type": "function"
    },
    {
      "inputs": [],
      "name": "owner",
      "outputs": [
        {
          "internalType": "address",
          "name": "",
          "type": "address"
        }
      ],
      "stateMutability": "view",
      "type": "function"
    },
    {
      "inputs": [],
      "name": "proxiableUUID",
      "outputs": [
        {
          "internalType": "bytes32",
          "name": "",
          "type": "bytes32"
        }
      ],
      "stateMutability": "view",
      "type": "function"
    },
    {
      "inputs": [],
      "name": "renounceOwnership",
      "outputs": [],
      "stateMutability": "nonpayable",
      "type": "function"
    },
    {
      "inputs": [
        {
          "internalType": "bytes32",
          "name": "eventHash",
          "type": "bytes32"
        },
        {
          "internalType": "uint256",
          "name": "snoozeKeyId",
          "type": "uint256"
        }
      ],
      "name": "snoozeAlarm",
      "outputs": [
        {
          "internalType": "uint256",
          "name": "",
          "type": "uint256"
        }
      ],
      "stateMutability": "nonpayable",
      "type": "function"
    },
    {
      "inputs": [
        {
          "internalType": "address",
          "name": "newOwner",
          "type": "address"
        }
      ],
      "name": "transferOwnership",
      "outputs": [],
      "stateMutability": "nonpayable",
      "type": "function"
    },
    {
      "inputs": [],
      "name": "trustEventLog",
      "outputs": [
        {
          "internalType": "contract ITrustEventLog",
          "name": "",
          "type": "address"
        }
      ],
      "stateMutability": "view",
      "type": "function"
    },
    {
      "inputs": [
        {
          "internalType": "address",
          "name": "newImplementation",
          "type": "address"
        }
      ],
      "name": "upgradeTo",
      "outputs": [],
      "stateMutability": "nonpayable",
      "type": "function"
    },
    {
      "inputs": [
        {
          "internalType": "address",
          "name": "newImplementation",
          "type": "address"
        },
        {
          "internalType": "bytes",
          "name": "data",
          "type": "bytes"
        }
      ],
      "name": "upgradeToAndCall",
      "outputs": [],
      "stateMutability": "payable",
      "type": "function"
    }
  ],
  "bytecode": "0x60a06040523060805234801561001457600080fd5b5061001d610022565b6100e2565b600054610100900460ff161561008e5760405162461bcd60e51b815260206004820152602760248201527f496e697469616c697a61626c653a20636f6e747261637420697320696e697469604482015266616c697a696e6760c81b606482015260840160405180910390fd5b60005460ff90811610156100e0576000805460ff191660ff9081179091556040519081527f7f26b83ff96e1f2b6a682f133852f6798a09c465da95921460cefb38474024989060200160405180910390a15b565b6080516119db61011960003960008181610408015281816104480152818161063201528181610672015261070501526119db6000f3fe6080604052600436106100c25760003560e01c806352d1902d1161007f5780638c08e8bc116100595780638c08e8bc146102335780638da5cb5b14610253578063c60e3dfc14610271578063f2fde38b1461029157600080fd5b806352d1902d146101db5780635a2fefef146101fe578063715018a61461021e57600080fd5b806313fb817e146100c75780631610ed921461010457806333ca9aeb146101265780633659cfe614610188578063485cc955146101a85780634f1ef286146101c8575b600080fd5b3480156100d357600080fd5b5060c9546100e7906001600160a01b031681565b6040516001600160a01b0390911681526020015b60405180910390f35b34801561011057600080fd5b5061012461011f3660046114d4565b6102b1565b005b34801561013257600080fd5b506101686101413660046114d4565b60cb6020526000908152604090208054600182015460028301546003909301549192909184565b6040805194855260208501939093529183015260608201526080016100fb565b34801561019457600080fd5b506101246101a3366004611502565b6103fe565b3480156101b457600080fd5b506101246101c336600461151f565b6104dd565b6101246101d636600461159f565b610628565b3480156101e757600080fd5b506101f06106f8565b6040519081526020016100fb565b34801561020a57600080fd5b5060ca546100e7906001600160a01b031681565b34801561022a57600080fd5b506101246107ab565b34801561023f57600080fd5b506101f061024e366004611647565b6107bf565b34801561025f57600080fd5b506033546001600160a01b03166100e7565b34801561027d57600080fd5b506101f061028c366004611669565b610b48565b34801561029d57600080fd5b506101246102ac366004611502565b610f7e565b600081815260cb602052604090208054821461030a5760405162461bcd60e51b81526020600482015260136024820152721253959053125117d05310549357d155915395606a1b60448201526064015b60405180910390fd5b42816001015411156103515760405162461bcd60e51b815260206004820152601060248201526f10d2105313115391d157d1905253115160821b6044820152606401610301565b60ca54604051632d6ab0d960e21b8152600481018490526001600160a01b039091169063b5aac36490602401600060405180830381600087803b15801561039757600080fd5b505af11580156103ab573d6000803e3d6000fd5b505050506001810154604080513381526020810185905280820192909252426060830152517f97be9d8024b26b4fcc60f88b81d920ca51e9fd8e73d46447afaefe0d43563ed69181900360800190a15050565b6001600160a01b037f00000000000000000000000000000000000000000000000000000000000000001630036104465760405162461bcd60e51b8152600401610301906116a4565b7f00000000000000000000000000000000000000000000000000000000000000006001600160a01b031661048f60008051602061195f833981519152546001600160a01b031690565b6001600160a01b0316146104b55760405162461bcd60e51b8152600401610301906116f0565b6104be81610ff4565b604080516000808252602082019092526104da91839190610ffc565b50565b600054610100900460ff16158080156104fd5750600054600160ff909116105b806105175750303b158015610517575060005460ff166001145b61057a5760405162461bcd60e51b815260206004820152602e60248201527f496e697469616c697a61626c653a20636f6e747261637420697320616c72656160448201526d191e481a5b9a5d1a585b1a5e995960921b6064820152608401610301565b6000805460ff19166001179055801561059d576000805461ff0019166101001790555b6105a5611167565b6105ad611196565b60ca80546001600160a01b038085166001600160a01b03199283161790925560c98054928616929091169190911790558015610623576000805461ff0019169055604051600181527f7f26b83ff96e1f2b6a682f133852f6798a09c465da95921460cefb38474024989060200160405180910390a15b505050565b6001600160a01b037f00000000000000000000000000000000000000000000000000000000000000001630036106705760405162461bcd60e51b8152600401610301906116a4565b7f00000000000000000000000000000000000000000000000000000000000000006001600160a01b03166106b960008051602061195f833981519152546001600160a01b031690565b6001600160a01b0316146106df5760405162461bcd60e51b8152600401610301906116f0565b6106e882610ff4565b6106f482826001610ffc565b5050565b6000306001600160a01b037f000000000000000000000000000000000000000000000000000000000000000016146107985760405162461bcd60e51b815260206004820152603860248201527f555550535570677261646561626c653a206d757374206e6f742062652063616c60448201527f6c6564207468726f7567682064656c656761746563616c6c00000000000000006064820152608401610301565b5060008051602061195f83398151915290565b6107b36111bd565b6107bd6000611217565b565b600082815260cb60205260408120805484146108135760405162461bcd60e51b81526020600482015260136024820152721253959053125117d05310549357d155915395606a1b6044820152606401610301565b600081600201541161085b5760405162461bcd60e51b8152602060048201526011602482015270554e534e4f4f5a41424c455f414c41524d60781b6044820152606401610301565b828160030154146108a15760405162461bcd60e51b815260206004820152601060248201526f57524f4e475f534e4f4f5a455f4b455960801b6044820152606401610301565b60c9546040805163b83ac19f60e01b815290516000926001600160a01b03169163b83ac19f9160048083019260209291908290030181865afa1580156108eb573d6000803e3d6000fd5b505050506040513d601f19601f8201168201806040525081019061090f919061173c565b604051630f5d2cd560e11b815233600482015260248101869052600060448201526001600160a01b039190911690631eba59aa90606401602060405180830381865afa158015610963573d6000803e3d6000fd5b505050506040513d601f19601f820116820180604052508101906109879190611759565b116109c35760405162461bcd60e51b815260206004820152600c60248201526b12d15657d393d517d211531160a21b6044820152606401610301565b60ca5460405163264075eb60e11b8152600481018690526001600160a01b0390911690634c80ebd690602401602060405180830381865afa158015610a0c573d6000803e3d6000fd5b505050506040513d601f19601f82011682018060405250810190610a309190611787565b15610a6a5760405162461bcd60e51b815260206004820152600a6024820152694f564552534e4f4f5a4560b01b6044820152606401610301565b806001015442101580610a8f575060018101546002820154610a8c90426117a2565b10155b610ac75760405162461bcd60e51b8152602060048201526009602482015268544f4f5f4541524c5960b81b6044820152606401610301565b80600101544211610adc578060010154610ade565b425b8160020154610aed91906117a2565b6001820181905560408051338152602081018790528082018690526060810192909252517fa2fc4bbee1f41c0db0ce3739548fead7aa49fd89bc36479d85f7281994050dd09181900360800190a16001015490505b92915050565b60008060c960009054906101000a90046001600160a01b03166001600160a01b031663b83ac19f6040518163ffffffff1660e01b8152600401602060405180830381865afa158015610b9e573d6000803e3d6000fd5b505050506040513d601f19601f82011682018060405250810190610bc2919061173c565b604051630f5d2cd560e11b815233600482015260248101899052600060448201526001600160a01b039190911690631eba59aa90606401602060405180830381865afa158015610c16573d6000803e3d6000fd5b505050506040513d601f19601f82011682018060405250810190610c3a9190611759565b11610c765760405162461bcd60e51b815260206004820152600c60248201526b12d15657d393d517d211531160a21b6044820152606401610301565b60c9546040516344766d2960e11b815260048101889052600091829182916001600160a01b0316906388ecda5290602401600060405180830381865afa158015610cc4573d6000803e3d6000fd5b505050506040513d6000823e601f3d908101601f19168201604052610cec91908101906117c3565b509350935050925080610d305760405162461bcd60e51b815260206004820152600c60248201526b12d15657d393d517d493d3d560a21b6044820152606401610301565b8515610e0c5760c9546040516344766d2960e11b81526004810187905260009182916001600160a01b03909116906388ecda5290602401600060405180830381865afa158015610d84573d6000803e3d6000fd5b505050506040513d6000823e601f3d908101601f19168201604052610dac91908101906117c3565b50509250509150848015610dbd5750815b8015610dc857508084145b610e095760405162461bcd60e51b8152602060048201526012602482015271494e56414c49445f534e4f4f5a455f4b455960701b6044820152606401610301565b50505b60ca546040805160208082018d90528183018c9052606082018b9052608082018a905260a08083018a90528351808403909101815260c08301938490528051910120638942e58560e01b90925260c4810185905260e481019190915261010481018a90526000916001600160a01b031690638942e58590610124016020604051808303816000875af1158015610ea6573d6000803e3d6000fd5b505050506040513d601f19601f82011682018060405250810190610eca9190611759565b604080516080808201835283825260208083018d81528385018d815260608086018e8152600089815260cb8652889020965187559251600187015590516002860155905160039094019390935583513381529081018890529283018e90529082018b9052810189905260a0810188905260c081018290529091507f5378c0f855cfb74215688e7d2565f6cb7ba7e537a232cead346ce012e16efcf59060e00160405180910390a19998505050505050505050565b610f866111bd565b6001600160a01b038116610feb5760405162461bcd60e51b815260206004820152602660248201527f4f776e61626c653a206e6577206f776e657220697320746865207a65726f206160448201526564647265737360d01b6064820152608401610301565b6104da81611217565b6104da6111bd565b7f4910fdfa16fed3260ed0e7147f7cc6da11a60208b5b9406d12a635614ffd91435460ff161561102f5761062383611269565b826001600160a01b03166352d1902d6040518163ffffffff1660e01b8152600401602060405180830381865afa925050508015611089575060408051601f3d908101601f1916820190925261108691810190611759565b60015b6110ec5760405162461bcd60e51b815260206004820152602e60248201527f45524331393637557067726164653a206e657720696d706c656d656e7461746960448201526d6f6e206973206e6f74205555505360901b6064820152608401610301565b60008051602061195f833981519152811461115b5760405162461bcd60e51b815260206004820152602960248201527f45524331393637557067726164653a20756e737570706f727465642070726f786044820152681a58589b195555525160ba1b6064820152608401610301565b50610623838383611305565b600054610100900460ff1661118e5760405162461bcd60e51b8152600401610301906118a0565b6107bd611330565b600054610100900460ff166107bd5760405162461bcd60e51b8152600401610301906118a0565b6033546001600160a01b031633146107bd5760405162461bcd60e51b815260206004820181905260248201527f4f776e61626c653a2063616c6c6572206973206e6f7420746865206f776e65726044820152606401610301565b603380546001600160a01b038381166001600160a01b0319831681179093556040519116919082907f8be0079c531659141344cd1fd0a4f28419497f9722a3daafe3b4186f6b6457e090600090a35050565b6001600160a01b0381163b6112d65760405162461bcd60e51b815260206004820152602d60248201527f455243313936373a206e657720696d706c656d656e746174696f6e206973206e60448201526c1bdd08184818dbdb9d1c9858dd609a1b6064820152608401610301565b60008051602061195f83398151915280546001600160a01b0319166001600160a01b0392909216919091179055565b61130e83611360565b60008251118061131b5750805b156106235761132a83836113a0565b50505050565b600054610100900460ff166113575760405162461bcd60e51b8152600401610301906118a0565b6107bd33611217565b61136981611269565b6040516001600160a01b038216907fbc7cd75a20ee27fd9adebab32041f755214dbc6bffa90cc0225b39da2e5c2d3b90600090a250565b60606001600160a01b0383163b6114085760405162461bcd60e51b815260206004820152602660248201527f416464726573733a2064656c65676174652063616c6c20746f206e6f6e2d636f6044820152651b9d1c9858dd60d21b6064820152608401610301565b600080846001600160a01b031684604051611423919061190f565b600060405180830381855af49150503d806000811461145e576040519150601f19603f3d011682016040523d82523d6000602084013e611463565b606091505b509150915061148b828260405180606001604052806027815260200161197f60279139611494565b95945050505050565b606083156114a35750816114cd565b8251156114b35782518084602001fd5b8160405162461bcd60e51b8152600401610301919061192b565b9392505050565b6000602082840312156114e657600080fd5b5035919050565b6001600160a01b03811681146104da57600080fd5b60006020828403121561151457600080fd5b81356114cd816114ed565b6000806040838503121561153257600080fd5b823561153d816114ed565b9150602083013561154d816114ed565b809150509250929050565b634e487b7160e01b600052604160045260246000fd5b604051601f8201601f1916810167ffffffffffffffff8111828210171561159757611597611558565b604052919050565b600080604083850312156115b257600080fd5b82356115bd816114ed565b915060208381013567ffffffffffffffff808211156115db57600080fd5b818601915086601f8301126115ef57600080fd5b81358181111561160157611601611558565b611613601f8201601f1916850161156e565b9150808252878482850101111561162957600080fd5b80848401858401376000848284010152508093505050509250929050565b6000806040838503121561165a57600080fd5b50508035926020909101359150565b600080600080600060a0868803121561168157600080fd5b505083359560208501359550604085013594606081013594506080013592509050565b6020808252602c908201527f46756e6374696f6e206d7573742062652063616c6c6564207468726f7567682060408201526b19195b1959d85d1958d85b1b60a21b606082015260800190565b6020808252602c908201527f46756e6374696f6e206d7573742062652063616c6c6564207468726f7567682060408201526b6163746976652070726f787960a01b606082015260800190565b60006020828403121561174e57600080fd5b81516114cd816114ed565b60006020828403121561176b57600080fd5b5051919050565b8051801515811461178257600080fd5b919050565b60006020828403121561179957600080fd5b6114cd82611772565b80820180821115610b4257634e487b7160e01b600052601160045260246000fd5b600080600080600060a086880312156117db57600080fd5b6117e486611772565b945060208087015194506040870151935061180160608801611772565b9250608087015167ffffffffffffffff8082111561181e57600080fd5b818901915089601f83011261183257600080fd5b81518181111561184457611844611558565b8060051b915061185584830161156e565b818152918301840191848101908c84111561186f57600080fd5b938501935b8385101561188d57845182529385019390850190611874565b8096505050505050509295509295909350565b6020808252602b908201527f496e697469616c697a61626c653a20636f6e7472616374206973206e6f74206960408201526a6e697469616c697a696e6760a81b606082015260800190565b60005b838110156119065781810151838201526020016118ee565b50506000910152565b600082516119218184602087016118eb565b9190910192915050565b602081526000825180602084015261194a8160408501602087016118eb565b601f01601f1916919091016040019291505056fe360894a13ba1a3210667c828492db98dca3e2076cc3735a920a3ca505d382bbc416464726573733a206c6f772d6c6576656c2064656c65676174652063616c6c206661696c6564a264697066735822122058596c640574f8730e453936cbeb90abfce0adb3438c95d31774575ca7dc7e5464736f6c63430008100033",
  "linkReferences": {},
  "deployedLinkReferences": {}
}