{
  "_format": "hh-sol-artifact-1",
  "contractName": "EtherVault",
  "sourceName": "contracts/providers/EtherVault.sol",
  "abi": [
    {
      "inputs": [],
      "stateMutability": "nonpayable",
      "type": "constructor"
    },
    {
      "anonymous": false,
      "inputs": [
        {
          "indexed": false,
          "internalType": "address",
          "name": "previousAdmin",
          "type": "address"
        },
        {
          "indexed": false,
          "internalType": "address",
          "name": "newAdmin",
          "type": "address"
        }
      ],
      "name": "AdminChanged",
      "type": "event"
    },
    {
      "anonymous": false,
      "inputs": [
        {
          "indexed": true,
          "internalType": "address",
          "name": "beacon",
          "type": "address"
        }
      ],
      "name": "BeaconUpgraded",
      "type": "event"
    },
    {
      "anonymous": false,
      "inputs": [
        {
          "indexed": false,
          "internalType": "uint8",
          "name": "version",
          "type": "uint8"
        }
      ],
      "name": "Initialized",
      "type": "event"
    },
    {
      "anonymous": false,
      "inputs": [
        {
          "indexed": true,
          "internalType": "address",
          "name": "previousOwner",
          "type": "address"
        },
        {
          "indexed": true,
          "internalType": "address",
          "name": "newOwner",
          "type": "address"
        }
      ],
      "name": "OwnershipTransferred",
      "type": "event"
    },
    {
      "anonymous": false,
      "inputs": [
        {
          "indexed": true,
          "internalType": "address",
          "name": "implementation",
          "type": "address"
        }
      ],
      "name": "Upgraded",
      "type": "event"
    },
    {
      "inputs": [
        {
          "internalType": "uint256",
          "name": "keyId",
          "type": "uint256"
        },
        {
          "internalType": "bytes32",
          "name": "arn",
          "type": "bytes32"
        },
        {
          "internalType": "uint256",
          "name": "amount",
          "type": "uint256"
        }
      ],
      "name": "arnWithdrawal",
      "outputs": [],
      "stateMutability": "nonpayable",
      "type": "function"
    },
    {
      "inputs": [
        {
          "internalType": "uint256",
          "name": "keyId",
          "type": "uint256"
        }
      ],
      "name": "deposit",
      "outputs": [],
      "stateMutability": "payable",
      "type": "function"
    },
    {
      "inputs": [],
      "name": "ethArn",
      "outputs": [
        {
          "internalType": "bytes32",
          "name": "",
          "type": "bytes32"
        }
      ],
      "stateMutability": "view",
      "type": "function"
    },
    {
      "inputs": [],
      "name": "etherBalance",
      "outputs": [
        {
          "internalType": "uint256",
          "name": "",
          "type": "uint256"
        }
      ],
      "stateMutability": "view",
      "type": "function"
    },
    {
      "inputs": [],
      "name": "getTrustedLedger",
      "outputs": [
        {
          "internalType": "address",
          "name": "",
          "type": "address"
        }
      ],
      "stateMutability": "view",
      "type": "function"
    },
    {
      "inputs": [
        {
          "internalType": "address",
          "name": "_Locksmith",
          "type": "address"
        },
        {
          "internalType": "address",
          "name": "_Ledger",
          "type": "address"
        }
      ],
      "name": "initialize",
      "outputs": [],
      "stateMutability": "nonpayable",
      "type": "function"
    },
    {
      "inputs": [],
      "name": "ledger",
      "outputs": [
        {
          "internalType": "contract ILedger",
          "name": "",
          "type": "address"
        }
      ],
      "stateMutability": "view",
      "type": "function"
    },
    {
      "inputs": [],
      "name": "locksmith",
      "outputs": [
        {
          "internalType": "contract ILocksmith",
          "name": "",
          "type": "address"
        }
      ],
      "stateMutability": "view",
      "type": "function"
    },
    {
      "inputs": [],
      "name": "owner",
      "outputs": [
        {
          "internalType": "address",
          "name": "",
          "type": "address"
        }
      ],
      "stateMutability": "view",
      "type": "function"
    },
    {
      "inputs": [],
      "name": "proxiableUUID",
      "outputs": [
        {
          "internalType": "bytes32",
          "name": "",
          "type": "bytes32"
        }
      ],
      "stateMutability": "view",
      "type": "function"
    },
    {
      "inputs": [],
      "name": "renounceOwnership",
      "outputs": [],
      "stateMutability": "nonpayable",
      "type": "function"
    },
    {
      "inputs": [
        {
          "internalType": "address",
          "name": "newOwner",
          "type": "address"
        }
      ],
      "name": "transferOwnership",
      "outputs": [],
      "stateMutability": "nonpayable",
      "type": "function"
    },
    {
      "inputs": [
        {
          "internalType": "address",
          "name": "newImplementation",
          "type": "address"
        }
      ],
      "name": "upgradeTo",
      "outputs": [],
      "stateMutability": "nonpayable",
      "type": "function"
    },
    {
      "inputs": [
        {
          "internalType": "address",
          "name": "newImplementation",
          "type": "address"
        },
        {
          "internalType": "bytes",
          "name": "data",
          "type": "bytes"
        }
      ],
      "name": "upgradeToAndCall",
      "outputs": [],
      "stateMutability": "payable",
      "type": "function"
    },
    {
      "inputs": [
        {
          "internalType": "uint256",
          "name": "keyId",
          "type": "uint256"
        },
        {
          "internalType": "uint256",
          "name": "amount",
          "type": "uint256"
        }
      ],
      "name": "withdrawal",
      "outputs": [],
      "stateMutability": "nonpayable",
      "type": "function"
    }
  ],
  "bytecode": "0x60a06040523060805234801561001457600080fd5b5061001d610022565b6100e2565b600054610100900460ff161561008e5760405162461bcd60e51b815260206004820152602760248201527f496e697469616c697a61626c653a20636f6e747261637420697320696e697469604482015266616c697a696e6760c81b606482015260840160405180910390fd5b60005460ff90811610156100e0576000805460ff191660ff9081179091556040519081527f7f26b83ff96e1f2b6a682f133852f6798a09c465da95921460cefb38474024989060200160405180910390a15b565b6080516114b0610119600039600081816102bc0152818161030501528181610583015281816105c3015261065601526114b06000f3fe6080604052600436106100e85760003560e01c8063615a44911161008a578063ad66e52a11610059578063ad66e52a14610249578063b6b55f251461025f578063c72a869614610272578063f2fde38b1461029257600080fd5b8063615a4491146101e2578063715018a6146101f85780638da5cb5b1461020d578063962047981461022b57600080fd5b80634dc33cd9116100c65780634dc33cd91461016c5780634f1ef2861461018c57806352d1902d1461019f57806356397c35146101c257600080fd5b806313fb817e146100ed5780633659cfe61461012a578063485cc9551461014c575b600080fd5b3480156100f957600080fd5b5060c95461010d906001600160a01b031681565b6040516001600160a01b0390911681526020015b60405180910390f35b34801561013657600080fd5b5061014a610145366004611090565b6102b2565b005b34801561015857600080fd5b5061014a6101673660046110ad565b61039a565b34801561017857600080fd5b5061014a6101873660046110e6565b610530565b61014a61019a366004611128565b610579565b3480156101ab57600080fd5b506101b4610649565b604051908152602001610121565b3480156101ce57600080fd5b5060ca5461010d906001600160a01b031681565b3480156101ee57600080fd5b506101b460cb5481565b34801561020457600080fd5b5061014a6106fc565b34801561021957600080fd5b506033546001600160a01b031661010d565b34801561023757600080fd5b5060ca546001600160a01b031661010d565b34801561025557600080fd5b506101b460cc5481565b61014a61026d3660046111ec565b610710565b34801561027e57600080fd5b5061014a61028d366004611205565b6108df565b34801561029e57600080fd5b5061014a6102ad366004611090565b6108e9565b6001600160a01b037f00000000000000000000000000000000000000000000000000000000000000001630036103035760405162461bcd60e51b81526004016102fa90611227565b60405180910390fd5b7f00000000000000000000000000000000000000000000000000000000000000006001600160a01b031661034c600080516020611434833981519152546001600160a01b031690565b6001600160a01b0316146103725760405162461bcd60e51b81526004016102fa90611273565b61037b8161095f565b6040805160008082526020820190925261039791839190610967565b50565b600054610100900460ff16158080156103ba5750600054600160ff909116105b806103d45750303b1580156103d4575060005460ff166001145b6104375760405162461bcd60e51b815260206004820152602e60248201527f496e697469616c697a61626c653a20636f6e747261637420697320616c72656160448201526d191e481a5b9a5d1a585b1a5e995960921b60648201526084016102fa565b6000805460ff19166001179055801561045a576000805461ff0019166101001790555b610462610ad2565b61046a610b01565b60c980546001600160a01b038581166001600160a01b03199283161790925560ca80549285169290911691909117905560408051606080820183526000808352602080840182905292840181905283518084018290528085018290528083019190915283518082039092018252608001909252815191012060cb55801561052b576000805461ff0019169055604051600181527f7f26b83ff96e1f2b6a682f133852f6798a09c465da95921460cefb38474024989060200160405180910390a15b505050565b60cb54821461056f5760405162461bcd60e51b815260206004820152600b60248201526a24a72b20a624a22fa0a92760a91b60448201526064016102fa565b61052b8382610b28565b6001600160a01b037f00000000000000000000000000000000000000000000000000000000000000001630036105c15760405162461bcd60e51b81526004016102fa90611227565b7f00000000000000000000000000000000000000000000000000000000000000006001600160a01b031661060a600080516020611434833981519152546001600160a01b031690565b6001600160a01b0316146106305760405162461bcd60e51b81526004016102fa90611273565b6106398261095f565b61064582826001610967565b5050565b6000306001600160a01b037f000000000000000000000000000000000000000000000000000000000000000016146106e95760405162461bcd60e51b815260206004820152603860248201527f555550535570677261646561626c653a206d757374206e6f742062652063616c60448201527f6c6564207468726f7567682064656c656761746563616c6c000000000000000060648201526084016102fa565b5060008051602061143483398151915290565b610704610d68565b61070e6000610dc2565b565b60c9546040805163b83ac19f60e01b815290516000926001600160a01b03169163b83ac19f9160048083019260209291908290030181865afa15801561075a573d6000803e3d6000fd5b505050506040513d601f19601f8201168201806040525081019061077e91906112bf565b604051630f5d2cd560e11b815233600482015260248101849052600060448201526001600160a01b039190911690631eba59aa90606401602060405180830381865afa1580156107d2573d6000803e3d6000fd5b505050506040513d601f19601f820116820180604052508101906107f691906112dc565b116108325760405162461bcd60e51b815260206004820152600c60248201526b12d15657d393d517d211531160a21b60448201526064016102fa565b3460cc6000828254610844919061130b565b909155505060ca5460cb54604051630198ea6f60e11b81526004810184905260248101919091523460448201526000916001600160a01b031690630331d4de906064016060604051808303816000875af11580156108a6573d6000803e3d6000fd5b505050506040513d601f19601f820116820180604052508101906108ca919061131e565b9250505060cc5481146106455761064561134c565b6106458282610b28565b6108f1610d68565b6001600160a01b0381166109565760405162461bcd60e51b815260206004820152602660248201527f4f776e61626c653a206e6577206f776e657220697320746865207a65726f206160448201526564647265737360d01b60648201526084016102fa565b61039781610dc2565b610397610d68565b7f4910fdfa16fed3260ed0e7147f7cc6da11a60208b5b9406d12a635614ffd91435460ff161561099a5761052b83610e14565b826001600160a01b03166352d1902d6040518163ffffffff1660e01b8152600401602060405180830381865afa9250505080156109f4575060408051601f3d908101601f191682019092526109f1918101906112dc565b60015b610a575760405162461bcd60e51b815260206004820152602e60248201527f45524331393637557067726164653a206e657720696d706c656d656e7461746960448201526d6f6e206973206e6f74205555505360901b60648201526084016102fa565b6000805160206114348339815191528114610ac65760405162461bcd60e51b815260206004820152602960248201527f45524331393637557067726164653a20756e737570706f727465642070726f786044820152681a58589b195555525160ba1b60648201526084016102fa565b5061052b838383610eb0565b600054610100900460ff16610af95760405162461bcd60e51b81526004016102fa90611362565b61070e610ed5565b600054610100900460ff1661070e5760405162461bcd60e51b81526004016102fa90611362565b60c9546040805163b83ac19f60e01b815290516000926001600160a01b03169163b83ac19f9160048083019260209291908290030181865afa158015610b72573d6000803e3d6000fd5b505050506040513d601f19601f82011682018060405250810190610b9691906112bf565b604051630f5d2cd560e11b815233600482015260248101859052600060448201526001600160a01b039190911690631eba59aa90606401602060405180830381865afa158015610bea573d6000803e3d6000fd5b505050506040513d601f19601f82011682018060405250810190610c0e91906112dc565b11610c4a5760405162461bcd60e51b815260206004820152600c60248201526b12d15657d393d517d211531160a21b60448201526064016102fa565b60ca5460cb54604051636c2340f160e11b8152600481018590526024810191909152604481018390526000916001600160a01b03169063d84681e2906064016060604051808303816000875af1158015610ca8573d6000803e3d6000fd5b505050506040513d601f19601f82011682018060405250810190610ccc919061131e565b925050508160cc6000828254610ce291906113ad565b909155505060cc548114610cf857610cf861134c565b60cc54471015610d0a57610d0a61134c565b604051600090339084908381818185875af1925050503d8060008114610d4c576040519150601f19603f3d011682016040523d82523d6000602084013e610d51565b606091505b5050905080610d6257610d6261134c565b50505050565b6033546001600160a01b0316331461070e5760405162461bcd60e51b815260206004820181905260248201527f4f776e61626c653a2063616c6c6572206973206e6f7420746865206f776e657260448201526064016102fa565b603380546001600160a01b038381166001600160a01b0319831681179093556040519116919082907f8be0079c531659141344cd1fd0a4f28419497f9722a3daafe3b4186f6b6457e090600090a35050565b6001600160a01b0381163b610e815760405162461bcd60e51b815260206004820152602d60248201527f455243313936373a206e657720696d706c656d656e746174696f6e206973206e60448201526c1bdd08184818dbdb9d1c9858dd609a1b60648201526084016102fa565b60008051602061143483398151915280546001600160a01b0319166001600160a01b0392909216919091179055565b610eb983610f05565b600082511180610ec65750805b1561052b57610d628383610f45565b600054610100900460ff16610efc5760405162461bcd60e51b81526004016102fa90611362565b61070e33610dc2565b610f0e81610e14565b6040516001600160a01b038216907fbc7cd75a20ee27fd9adebab32041f755214dbc6bffa90cc0225b39da2e5c2d3b90600090a250565b60606001600160a01b0383163b610fad5760405162461bcd60e51b815260206004820152602660248201527f416464726573733a2064656c65676174652063616c6c20746f206e6f6e2d636f6044820152651b9d1c9858dd60d21b60648201526084016102fa565b600080846001600160a01b031684604051610fc891906113e4565b600060405180830381855af49150503d8060008114611003576040519150601f19603f3d011682016040523d82523d6000602084013e611008565b606091505b509150915061103082826040518060600160405280602781526020016114546027913961103b565b925050505b92915050565b6060831561104a575081611074565b82511561105a5782518084602001fd5b8160405162461bcd60e51b81526004016102fa9190611400565b9392505050565b6001600160a01b038116811461039757600080fd5b6000602082840312156110a257600080fd5b81356110748161107b565b600080604083850312156110c057600080fd5b82356110cb8161107b565b915060208301356110db8161107b565b809150509250929050565b6000806000606084860312156110fb57600080fd5b505081359360208301359350604090920135919050565b634e487b7160e01b600052604160045260246000fd5b6000806040838503121561113b57600080fd5b82356111468161107b565b9150602083013567ffffffffffffffff8082111561116357600080fd5b818501915085601f83011261117757600080fd5b81358181111561118957611189611112565b604051601f8201601f19908116603f011681019083821181831017156111b1576111b1611112565b816040528281528860208487010111156111ca57600080fd5b8260208601602083013760006020848301015280955050505050509250929050565b6000602082840312156111fe57600080fd5b5035919050565b6000806040838503121561121857600080fd5b50508035926020909101359150565b6020808252602c908201527f46756e6374696f6e206d7573742062652063616c6c6564207468726f7567682060408201526b19195b1959d85d1958d85b1b60a21b606082015260800190565b6020808252602c908201527f46756e6374696f6e206d7573742062652063616c6c6564207468726f7567682060408201526b6163746976652070726f787960a01b606082015260800190565b6000602082840312156112d157600080fd5b81516110748161107b565b6000602082840312156112ee57600080fd5b5051919050565b634e487b7160e01b600052601160045260246000fd5b80820180821115611035576110356112f5565b60008060006060848603121561133357600080fd5b8351925060208401519150604084015190509250925092565b634e487b7160e01b600052600160045260246000fd5b6020808252602b908201527f496e697469616c697a61626c653a20636f6e7472616374206973206e6f74206960408201526a6e697469616c697a696e6760a81b606082015260800190565b81810381811115611035576110356112f5565b60005b838110156113db5781810151838201526020016113c3565b50506000910152565b600082516113f68184602087016113c0565b9190910192915050565b602081526000825180602084015261141f8160408501602087016113c0565b601f01601f1916919091016040019291505056fe360894a13ba1a3210667c828492db98dca3e2076cc3735a920a3ca505d382bbc416464726573733a206c6f772d6c6576656c2064656c65676174652063616c6c206661696c6564a26469706673582212206eb25550ccd493ab6dfeac066a28b691a3e9d30633f3ac3e0c694ab85df6157664736f6c63430008100033",
  "linkReferences": {},
  "deployedLinkReferences": {}
}