{
  "_format": "hh-sol-artifact-1",
  "contractName": "TokenVault",
  "sourceName": "contracts/providers/TokenVault.sol",
  "abi": [
    {
      "inputs": [],
      "stateMutability": "nonpayable",
      "type": "constructor"
    },
    {
      "anonymous": false,
      "inputs": [
        {
          "indexed": false,
          "internalType": "address",
          "name": "previousAdmin",
          "type": "address"
        },
        {
          "indexed": false,
          "internalType": "address",
          "name": "newAdmin",
          "type": "address"
        }
      ],
      "name": "AdminChanged",
      "type": "event"
    },
    {
      "anonymous": false,
      "inputs": [
        {
          "indexed": true,
          "internalType": "address",
          "name": "beacon",
          "type": "address"
        }
      ],
      "name": "BeaconUpgraded",
      "type": "event"
    },
    {
      "anonymous": false,
      "inputs": [
        {
          "indexed": false,
          "internalType": "uint8",
          "name": "version",
          "type": "uint8"
        }
      ],
      "name": "Initialized",
      "type": "event"
    },
    {
      "anonymous": false,
      "inputs": [
        {
          "indexed": true,
          "internalType": "address",
          "name": "previousOwner",
          "type": "address"
        },
        {
          "indexed": true,
          "internalType": "address",
          "name": "newOwner",
          "type": "address"
        }
      ],
      "name": "OwnershipTransferred",
      "type": "event"
    },
    {
      "anonymous": false,
      "inputs": [
        {
          "indexed": true,
          "internalType": "address",
          "name": "implementation",
          "type": "address"
        }
      ],
      "name": "Upgraded",
      "type": "event"
    },
    {
      "inputs": [
        {
          "internalType": "bytes32",
          "name": "",
          "type": "bytes32"
        }
      ],
      "name": "arnContracts",
      "outputs": [
        {
          "internalType": "address",
          "name": "",
          "type": "address"
        }
      ],
      "stateMutability": "view",
      "type": "function"
    },
    {
      "inputs": [
        {
          "internalType": "uint256",
          "name": "keyId",
          "type": "uint256"
        },
        {
          "internalType": "bytes32",
          "name": "arn",
          "type": "bytes32"
        },
        {
          "internalType": "uint256",
          "name": "amount",
          "type": "uint256"
        }
      ],
      "name": "arnWithdrawal",
      "outputs": [],
      "stateMutability": "nonpayable",
      "type": "function"
    },
    {
      "inputs": [
        {
          "internalType": "uint256",
          "name": "keyId",
          "type": "uint256"
        },
        {
          "internalType": "address",
          "name": "token",
          "type": "address"
        },
        {
          "internalType": "uint256",
          "name": "amount",
          "type": "uint256"
        }
      ],
      "name": "deposit",
      "outputs": [],
      "stateMutability": "nonpayable",
      "type": "function"
    },
    {
      "inputs": [
        {
          "internalType": "uint256",
          "name": "keyId",
          "type": "uint256"
        }
      ],
      "name": "getTokenTypes",
      "outputs": [
        {
          "internalType": "address[]",
          "name": "",
          "type": "address[]"
        }
      ],
      "stateMutability": "view",
      "type": "function"
    },
    {
      "inputs": [],
      "name": "getTrustedLedger",
      "outputs": [
        {
          "internalType": "address",
          "name": "",
          "type": "address"
        }
      ],
      "stateMutability": "view",
      "type": "function"
    },
    {
      "inputs": [
        {
          "internalType": "address",
          "name": "_Locksmith",
          "type": "address"
        },
        {
          "internalType": "address",
          "name": "_Ledger",
          "type": "address"
        }
      ],
      "name": "initialize",
      "outputs": [],
      "stateMutability": "nonpayable",
      "type": "function"
    },
    {
      "inputs": [],
      "name": "ledger",
      "outputs": [
        {
          "internalType": "contract ILedger",
          "name": "",
          "type": "address"
        }
      ],
      "stateMutability": "view",
      "type": "function"
    },
    {
      "inputs": [],
      "name": "locksmith",
      "outputs": [
        {
          "internalType": "contract ILocksmith",
          "name": "",
          "type": "address"
        }
      ],
      "stateMutability": "view",
      "type": "function"
    },
    {
      "inputs": [],
      "name": "owner",
      "outputs": [
        {
          "internalType": "address",
          "name": "",
          "type": "address"
        }
      ],
      "stateMutability": "view",
      "type": "function"
    },
    {
      "inputs": [],
      "name": "proxiableUUID",
      "outputs": [
        {
          "internalType": "bytes32",
          "name": "",
          "type": "bytes32"
        }
      ],
      "stateMutability": "view",
      "type": "function"
    },
    {
      "inputs": [],
      "name": "renounceOwnership",
      "outputs": [],
      "stateMutability": "nonpayable",
      "type": "function"
    },
    {
      "inputs": [
        {
          "internalType": "address",
          "name": "newOwner",
          "type": "address"
        }
      ],
      "name": "transferOwnership",
      "outputs": [],
      "stateMutability": "nonpayable",
      "type": "function"
    },
    {
      "inputs": [
        {
          "internalType": "address",
          "name": "newImplementation",
          "type": "address"
        }
      ],
      "name": "upgradeTo",
      "outputs": [],
      "stateMutability": "nonpayable",
      "type": "function"
    },
    {
      "inputs": [
        {
          "internalType": "address",
          "name": "newImplementation",
          "type": "address"
        },
        {
          "internalType": "bytes",
          "name": "data",
          "type": "bytes"
        }
      ],
      "name": "upgradeToAndCall",
      "outputs": [],
      "stateMutability": "payable",
      "type": "function"
    },
    {
      "inputs": [
        {
          "internalType": "uint256",
          "name": "keyId",
          "type": "uint256"
        },
        {
          "internalType": "address",
          "name": "token",
          "type": "address"
        },
        {
          "internalType": "uint256",
          "name": "amount",
          "type": "uint256"
        }
      ],
      "name": "withdrawal",
      "outputs": [],
      "stateMutability": "nonpayable",
      "type": "function"
    }
  ],
  "bytecode": "0x60a06040523060805234801561001457600080fd5b5061001d610022565b6100e2565b600054610100900460ff161561008e5760405162461bcd60e51b815260206004820152602760248201527f496e697469616c697a61626c653a20636f6e747261637420697320696e697469604482015266616c697a696e6760c81b606482015260840160405180910390fd5b60005460ff90811610156100e0576000805460ff191660ff9081179091556040519081527f7f26b83ff96e1f2b6a682f133852f6798a09c465da95921460cefb38474024989060200160405180910390a15b565b608051611a806101196000396000818161039d015281816103e6015281816105f60152818161063601526106c90152611a806000f3fe6080604052600436106100e85760003560e01c806356397c351161008a57806396204798116100595780639620479814610278578063bc157ac114610296578063f24ff92c146102b6578063f2fde38b146102d657600080fd5b806356397c35146101ef5780635ccca3981461020f578063715018a6146102455780638da5cb5b1461025a57600080fd5b8063485cc955116100c6578063485cc955146101795780634dc33cd9146101995780634f1ef286146101b957806352d1902d146101cc57600080fd5b806313fb817e146100ed5780632eb130961461012a5780633659cfe614610157575b600080fd5b3480156100f957600080fd5b5060c95461010d906001600160a01b031681565b6040516001600160a01b0390911681526020015b60405180910390f35b34801561013657600080fd5b5061014a6101453660046114c6565b6102f6565b60405161012191906114df565b34801561016357600080fd5b50610177610172366004611541565b610393565b005b34801561018557600080fd5b5061017761019436600461155e565b61047b565b3480156101a557600080fd5b506101776101b4366004611597565b6105c6565b6101776101c736600461160a565b6105ec565b3480156101d857600080fd5b506101e16106bc565b604051908152602001610121565b3480156101fb57600080fd5b5060ca5461010d906001600160a01b031681565b34801561021b57600080fd5b5061010d61022a3660046114c6565b60cc602052600090815260409020546001600160a01b031681565b34801561025157600080fd5b5061017761076f565b34801561026657600080fd5b506033546001600160a01b031661010d565b34801561028457600080fd5b5060ca546001600160a01b031661010d565b3480156102a257600080fd5b506101776102b13660046116b2565b610783565b3480156102c257600080fd5b506101776102d13660046116b2565b610b9d565b3480156102e257600080fd5b506101776102f1366004611541565b610bd6565b60c9546040516344766d2960e11b8152600481018390526060916000916001600160a01b03909116906388ecda5290602401600060405180830381865afa158015610345573d6000803e3d6000fd5b505050506040513d6000823e601f3d908101601f1916820160405261036d91908101906116ff565b5050600081815260cb6020526040902090935061038c92509050610c4c565b9392505050565b6001600160a01b037f00000000000000000000000000000000000000000000000000000000000000001630036103e45760405162461bcd60e51b81526004016103db906117dc565b60405180910390fd5b7f00000000000000000000000000000000000000000000000000000000000000006001600160a01b031661042d600080516020611a04833981519152546001600160a01b031690565b6001600160a01b0316146104535760405162461bcd60e51b81526004016103db90611828565b61045c81610c59565b6040805160008082526020820190925261047891839190610c61565b50565b600054610100900460ff161580801561049b5750600054600160ff909116105b806104b55750303b1580156104b5575060005460ff166001145b6105185760405162461bcd60e51b815260206004820152602e60248201527f496e697469616c697a61626c653a20636f6e747261637420697320616c72656160448201526d191e481a5b9a5d1a585b1a5e995960921b60648201526084016103db565b6000805460ff19166001179055801561053b576000805461ff0019166101001790555b610543610dcc565b61054b610dfb565b60c980546001600160a01b038086166001600160a01b03199283161790925560ca80549285169290911691909117905580156105c1576000805461ff0019169055604051600181527f7f26b83ff96e1f2b6a682f133852f6798a09c465da95921460cefb38474024989060200160405180910390a15b505050565b600082815260cc60205260409020546105c190849084906001600160a01b031684610e22565b6001600160a01b037f00000000000000000000000000000000000000000000000000000000000000001630036106345760405162461bcd60e51b81526004016103db906117dc565b7f00000000000000000000000000000000000000000000000000000000000000006001600160a01b031661067d600080516020611a04833981519152546001600160a01b031690565b6001600160a01b0316146106a35760405162461bcd60e51b81526004016103db90611828565b6106ac82610c59565b6106b882826001610c61565b5050565b6000306001600160a01b037f0000000000000000000000000000000000000000000000000000000000000000161461075c5760405162461bcd60e51b815260206004820152603860248201527f555550535570677261646561626c653a206d757374206e6f742062652063616c60448201527f6c6564207468726f7567682064656c656761746563616c6c000000000000000060648201526084016103db565b50600080516020611a0483398151915290565b6107776110a0565b61078160006110fa565b565b60c9546040805163b83ac19f60e01b815290516000926001600160a01b03169163b83ac19f9160048083019260209291908290030181865afa1580156107cd573d6000803e3d6000fd5b505050506040513d601f19601f820116820180604052508101906107f19190611874565b604051630f5d2cd560e11b815233600482015260248101869052600060448201526001600160a01b039190911690631eba59aa90606401602060405180830381865afa158015610845573d6000803e3d6000fd5b505050506040513d601f19601f820116820180604052508101906108699190611891565b116108a55760405162461bcd60e51b815260206004820152600c60248201526b12d15657d393d517d211531160a21b60448201526064016103db565b60006108d56040518060600160405280856001600160a01b0316815260200160148152602001600081525061114c565b600081815260cc60205260409081902080546001600160a01b0319166001600160a01b03871690811790915590516370a0823160e01b815233600482015291925083916370a0823190602401602060405180830381865afa15801561093e573d6000803e3d6000fd5b505050506040513d601f19601f820116820180604052508101906109629190611891565b10156109a65760405162461bcd60e51b8152602060048201526013602482015272494e53554646494349454e545f544f4b454e5360681b60448201526064016103db565b6001600160a01b038316600090815260cd6020526040812080548492906109ce9084906118c0565b909155505060c9546040516344766d2960e11b8152600481018690526000916001600160a01b0316906388ecda5290602401600060405180830381865afa158015610a1d573d6000803e3d6000fd5b505050506040513d6000823e601f3d908101601f19168201604052610a4591908101906116ff565b5050600081815260cb60205260409020909350610a659250905085611199565b506040516323b872dd60e01b8152336004820152306024820152604481018490526001600160a01b038516906323b872dd906064016020604051808303816000875af1158015610ab9573d6000803e3d6000fd5b505050506040513d601f19601f82011682018060405250810190610add91906118d3565b610ae957610ae96118ee565b60ca54604051630198ea6f60e11b81526004810187905260248101849052604481018590526000916001600160a01b031690630331d4de906064016060604051808303816000875af1158015610b43573d6000803e3d6000fd5b505050506040513d601f19601f82011682018060405250810190610b679190611904565b6001600160a01b038816600090815260cd602052604090205490935083149150610b95905057610b956118ee565b505050505050565b6105c183610bcf6040518060600160405280866001600160a01b0316815260200160148152602001600081525061114c565b8484610e22565b610bde6110a0565b6001600160a01b038116610c435760405162461bcd60e51b815260206004820152602660248201527f4f776e61626c653a206e6577206f776e657220697320746865207a65726f206160448201526564647265737360d01b60648201526084016103db565b610478816110fa565b6060600061038c836111b7565b6104786110a0565b7f4910fdfa16fed3260ed0e7147f7cc6da11a60208b5b9406d12a635614ffd91435460ff1615610c94576105c183611213565b826001600160a01b03166352d1902d6040518163ffffffff1660e01b8152600401602060405180830381865afa925050508015610cee575060408051601f3d908101601f19168201909252610ceb91810190611891565b60015b610d515760405162461bcd60e51b815260206004820152602e60248201527f45524331393637557067726164653a206e657720696d706c656d656e7461746960448201526d6f6e206973206e6f74205555505360901b60648201526084016103db565b600080516020611a048339815191528114610dc05760405162461bcd60e51b815260206004820152602960248201527f45524331393637557067726164653a20756e737570706f727465642070726f786044820152681a58589b195555525160ba1b60648201526084016103db565b506105c18383836112af565b600054610100900460ff16610df35760405162461bcd60e51b81526004016103db90611932565b6107816112da565b600054610100900460ff166107815760405162461bcd60e51b81526004016103db90611932565b60c9546040805163b83ac19f60e01b815290516000926001600160a01b03169163b83ac19f9160048083019260209291908290030181865afa158015610e6c573d6000803e3d6000fd5b505050506040513d601f19601f82011682018060405250810190610e909190611874565b604051630f5d2cd560e11b815233600482015260248101879052600060448201526001600160a01b039190911690631eba59aa90606401602060405180830381865afa158015610ee4573d6000803e3d6000fd5b505050506040513d601f19601f82011682018060405250810190610f089190611891565b11610f445760405162461bcd60e51b815260206004820152600c60248201526b12d15657d393d517d211531160a21b60448201526064016103db565b60ca54604051636c2340f160e11b81526004810186905260248101859052604481018390526000916001600160a01b03169063d84681e2906064016060604051808303816000875af1158015610f9e573d6000803e3d6000fd5b505050506040513d601f19601f82011682018060405250810190610fc29190611904565b6001600160a01b038616600090815260cd602052604081208054929550869450925090610ff090849061197d565b90915550506001600160a01b038316600090815260cd6020526040902054811461101c5761101c6118ee565b60405163a9059cbb60e01b8152336004820152602481018390526001600160a01b0384169063a9059cbb906044016020604051808303816000875af1158015611069573d6000803e3d6000fd5b505050506040513d601f19601f8201168201806040525081019061108d91906118d3565b611099576110996118ee565b5050505050565b6033546001600160a01b031633146107815760405162461bcd60e51b815260206004820181905260248201527f4f776e61626c653a2063616c6c6572206973206e6f7420746865206f776e657260448201526064016103db565b603380546001600160a01b038381166001600160a01b0319831681179093556040519116919082907f8be0079c531659141344cd1fd0a4f28419497f9722a3daafe3b4186f6b6457e090600090a35050565b805160208083015160408085015181516001600160a01b03909516938501939093528301526060820152600090608001604051602081830303815290604052805190602001209050919050565b60006111ae836001600160a01b03841661130a565b90505b92915050565b60608160000180548060200260200160405190810160405280929190818152602001828054801561120757602002820191906000526020600020905b8154815260200190600101908083116111f3575b50505050509050919050565b6001600160a01b0381163b6112805760405162461bcd60e51b815260206004820152602d60248201527f455243313936373a206e657720696d706c656d656e746174696f6e206973206e60448201526c1bdd08184818dbdb9d1c9858dd609a1b60648201526084016103db565b600080516020611a0483398151915280546001600160a01b0319166001600160a01b0392909216919091179055565b6112b883611359565b6000825111806112c55750805b156105c1576112d48383611399565b50505050565b600054610100900460ff166113015760405162461bcd60e51b81526004016103db90611932565b610781336110fa565b6000818152600183016020526040812054611351575081546001818101845560008481526020808220909301849055845484825282860190935260409020919091556111b1565b5060006111b1565b61136281611213565b6040516001600160a01b038216907fbc7cd75a20ee27fd9adebab32041f755214dbc6bffa90cc0225b39da2e5c2d3b90600090a250565b60606001600160a01b0383163b6114015760405162461bcd60e51b815260206004820152602660248201527f416464726573733a2064656c65676174652063616c6c20746f206e6f6e2d636f6044820152651b9d1c9858dd60d21b60648201526084016103db565b600080846001600160a01b03168460405161141c91906119b4565b600060405180830381855af49150503d8060008114611457576040519150601f19603f3d011682016040523d82523d6000602084013e61145c565b606091505b50915091506114848282604051806060016040528060278152602001611a246027913961148d565b95945050505050565b6060831561149c57508161038c565b8251156114ac5782518084602001fd5b8160405162461bcd60e51b81526004016103db91906119d0565b6000602082840312156114d857600080fd5b5035919050565b6020808252825182820181905260009190848201906040850190845b818110156115205783516001600160a01b0316835292840192918401916001016114fb565b50909695505050505050565b6001600160a01b038116811461047857600080fd5b60006020828403121561155357600080fd5b813561038c8161152c565b6000806040838503121561157157600080fd5b823561157c8161152c565b9150602083013561158c8161152c565b809150509250929050565b6000806000606084860312156115ac57600080fd5b505081359360208301359350604090920135919050565b634e487b7160e01b600052604160045260246000fd5b604051601f8201601f1916810167ffffffffffffffff81118282101715611602576116026115c3565b604052919050565b6000806040838503121561161d57600080fd5b82356116288161152c565b915060208381013567ffffffffffffffff8082111561164657600080fd5b818601915086601f83011261165a57600080fd5b81358181111561166c5761166c6115c3565b61167e601f8201601f191685016115d9565b9150808252878482850101111561169457600080fd5b80848401858401376000848284010152508093505050509250929050565b6000806000606084860312156116c757600080fd5b8335925060208401356116d98161152c565b929592945050506040919091013590565b805180151581146116fa57600080fd5b919050565b600080600080600060a0868803121561171757600080fd5b611720866116ea565b945060208087015194506040870151935061173d606088016116ea565b9250608087015167ffffffffffffffff8082111561175a57600080fd5b818901915089601f83011261176e57600080fd5b815181811115611780576117806115c3565b8060051b91506117918483016115d9565b818152918301840191848101908c8411156117ab57600080fd5b938501935b838510156117c9578451825293850193908501906117b0565b8096505050505050509295509295909350565b6020808252602c908201527f46756e6374696f6e206d7573742062652063616c6c6564207468726f7567682060408201526b19195b1959d85d1958d85b1b60a21b606082015260800190565b6020808252602c908201527f46756e6374696f6e206d7573742062652063616c6c6564207468726f7567682060408201526b6163746976652070726f787960a01b606082015260800190565b60006020828403121561188657600080fd5b815161038c8161152c565b6000602082840312156118a357600080fd5b5051919050565b634e487b7160e01b600052601160045260246000fd5b808201808211156111b1576111b16118aa565b6000602082840312156118e557600080fd5b6111ae826116ea565b634e487b7160e01b600052600160045260246000fd5b60008060006060848603121561191957600080fd5b8351925060208401519150604084015190509250925092565b6020808252602b908201527f496e697469616c697a61626c653a20636f6e7472616374206973206e6f74206960408201526a6e697469616c697a696e6760a81b606082015260800190565b818103818111156111b1576111b16118aa565b60005b838110156119ab578181015183820152602001611993565b50506000910152565b600082516119c6818460208701611990565b9190910192915050565b60208152600082518060208401526119ef816040850160208701611990565b601f01601f1916919091016040019291505056fe360894a13ba1a3210667c828492db98dca3e2076cc3735a920a3ca505d382bbc416464726573733a206c6f772d6c6576656c2064656c65676174652063616c6c206661696c6564a2646970667358221220101f3a047d24499a499158162fd99924d9b383b2030f80e23f7831807033c4af64736f6c63430008100033",
  "linkReferences": {},
  "deployedLinkReferences": {}
}