{
  "_format": "hh-sol-artifact-1",
  "contractName": "Distributor",
  "sourceName": "contracts/scribes/Distributor.sol",
  "abi": [
    {
      "inputs": [],
      "stateMutability": "nonpayable",
      "type": "constructor"
    },
    {
      "anonymous": false,
      "inputs": [
        {
          "indexed": false,
          "internalType": "address",
          "name": "previousAdmin",
          "type": "address"
        },
        {
          "indexed": false,
          "internalType": "address",
          "name": "newAdmin",
          "type": "address"
        }
      ],
      "name": "AdminChanged",
      "type": "event"
    },
    {
      "anonymous": false,
      "inputs": [
        {
          "indexed": true,
          "internalType": "address",
          "name": "beacon",
          "type": "address"
        }
      ],
      "name": "BeaconUpgraded",
      "type": "event"
    },
    {
      "anonymous": false,
      "inputs": [
        {
          "indexed": false,
          "internalType": "uint8",
          "name": "version",
          "type": "uint8"
        }
      ],
      "name": "Initialized",
      "type": "event"
    },
    {
      "anonymous": false,
      "inputs": [
        {
          "indexed": true,
          "internalType": "address",
          "name": "previousOwner",
          "type": "address"
        },
        {
          "indexed": true,
          "internalType": "address",
          "name": "newOwner",
          "type": "address"
        }
      ],
      "name": "OwnershipTransferred",
      "type": "event"
    },
    {
      "anonymous": false,
      "inputs": [
        {
          "indexed": true,
          "internalType": "address",
          "name": "implementation",
          "type": "address"
        }
      ],
      "name": "Upgraded",
      "type": "event"
    },
    {
      "inputs": [
        {
          "internalType": "address",
          "name": "provider",
          "type": "address"
        },
        {
          "internalType": "bytes32",
          "name": "arn",
          "type": "bytes32"
        },
        {
          "internalType": "uint256",
          "name": "sourceKeyId",
          "type": "uint256"
        },
        {
          "internalType": "uint256[]",
          "name": "keys",
          "type": "uint256[]"
        },
        {
          "internalType": "uint256[]",
          "name": "amounts",
          "type": "uint256[]"
        }
      ],
      "name": "distribute",
      "outputs": [
        {
          "internalType": "uint256",
          "name": "",
          "type": "uint256"
        }
      ],
      "stateMutability": "nonpayable",
      "type": "function"
    },
    {
      "inputs": [
        {
          "internalType": "address",
          "name": "_Locksmith",
          "type": "address"
        },
        {
          "internalType": "address",
          "name": "_Ledger",
          "type": "address"
        }
      ],
      "name": "initialize",
      "outputs": [],
      "stateMutability": "nonpayable",
      "type": "function"
    },
    {
      "inputs": [],
      "name": "ledger",
      "outputs": [
        {
          "internalType": "contract ILedger",
          "name": "",
          "type": "address"
        }
      ],
      "stateMutability": "view",
      "type": "function"
    },
    {
      "inputs": [],
      "name": "locksmith",
      "outputs": [
        {
          "internalType": "contract ILocksmith",
          "name": "",
          "type": "address"
        }
      ],
      "stateMutability": "view",
      "type": "function"
    },
    {
      "inputs": [],
      "name": "owner",
      "outputs": [
        {
          "internalType": "address",
          "name": "",
          "type": "address"
        }
      ],
      "stateMutability": "view",
      "type": "function"
    },
    {
      "inputs": [],
      "name": "proxiableUUID",
      "outputs": [
        {
          "internalType": "bytes32",
          "name": "",
          "type": "bytes32"
        }
      ],
      "stateMutability": "view",
      "type": "function"
    },
    {
      "inputs": [],
      "name": "renounceOwnership",
      "outputs": [],
      "stateMutability": "nonpayable",
      "type": "function"
    },
    {
      "inputs": [
        {
          "internalType": "address",
          "name": "newOwner",
          "type": "address"
        }
      ],
      "name": "transferOwnership",
      "outputs": [],
      "stateMutability": "nonpayable",
      "type": "function"
    },
    {
      "inputs": [
        {
          "internalType": "address",
          "name": "newImplementation",
          "type": "address"
        }
      ],
      "name": "upgradeTo",
      "outputs": [],
      "stateMutability": "nonpayable",
      "type": "function"
    },
    {
      "inputs": [
        {
          "internalType": "address",
          "name": "newImplementation",
          "type": "address"
        },
        {
          "internalType": "bytes",
          "name": "data",
          "type": "bytes"
        }
      ],
      "name": "upgradeToAndCall",
      "outputs": [],
      "stateMutability": "payable",
      "type": "function"
    }
  ],
  "bytecode": "0x60a06040523060805234801561001457600080fd5b5061001d610022565b6100e2565b600054610100900460ff161561008e5760405162461bcd60e51b815260206004820152602760248201527f496e697469616c697a61626c653a20636f6e747261637420697320696e697469604482015266616c697a696e6760c81b606482015260840160405180910390fd5b60005460ff90811610156100e0576000805460ff191660ff9081179091556040519081527f7f26b83ff96e1f2b6a682f133852f6798a09c465da95921460cefb38474024989060200160405180910390a15b565b608051611168610119600039600081816101e8015281816102310152818161041b0152818161045b01526104ee01526111686000f3fe6080604052600436106100915760003560e01c806356397c351161005957806356397c351461014b578063715018a61461016b5780638da5cb5b14610180578063e009d93c1461019e578063f2fde38b146101be57600080fd5b806313fb817e146100965780633659cfe6146100d3578063485cc955146100f55780634f1ef2861461011557806352d1902d14610128575b600080fd5b3480156100a257600080fd5b5060c9546100b6906001600160a01b031681565b6040516001600160a01b0390911681526020015b60405180910390f35b3480156100df57600080fd5b506100f36100ee366004610ccc565b6101de565b005b34801561010157600080fd5b506100f3610110366004610ce9565b6102c6565b6100f3610123366004610d38565b610411565b34801561013457600080fd5b5061013d6104e1565b6040519081526020016100ca565b34801561015757600080fd5b5060ca546100b6906001600160a01b031681565b34801561017757600080fd5b506100f3610594565b34801561018c57600080fd5b506033546001600160a01b03166100b6565b3480156101aa57600080fd5b5061013d6101b9366004610e48565b6105a8565b3480156101ca57600080fd5b506100f36101d9366004610ccc565b610761565b6001600160a01b037f000000000000000000000000000000000000000000000000000000000000000016300361022f5760405162461bcd60e51b815260040161022690610ede565b60405180910390fd5b7f00000000000000000000000000000000000000000000000000000000000000006001600160a01b03166102786000805160206110ec833981519152546001600160a01b031690565b6001600160a01b03161461029e5760405162461bcd60e51b815260040161022690610f2a565b6102a7816107d7565b604080516000808252602082019092526102c3918391906107df565b50565b600054610100900460ff16158080156102e65750600054600160ff909116105b806103005750303b158015610300575060005460ff166001145b6103635760405162461bcd60e51b815260206004820152602e60248201527f496e697469616c697a61626c653a20636f6e747261637420697320616c72656160448201526d191e481a5b9a5d1a585b1a5e995960921b6064820152608401610226565b6000805460ff191660011790558015610386576000805461ff0019166101001790555b61038e61094a565b610396610979565b60c980546001600160a01b038086166001600160a01b03199283161790925560ca805492851692909116919091179055801561040c576000805461ff0019169055604051600181527f7f26b83ff96e1f2b6a682f133852f6798a09c465da95921460cefb38474024989060200160405180910390a15b505050565b6001600160a01b037f00000000000000000000000000000000000000000000000000000000000000001630036104595760405162461bcd60e51b815260040161022690610ede565b7f00000000000000000000000000000000000000000000000000000000000000006001600160a01b03166104a26000805160206110ec833981519152546001600160a01b031690565b6001600160a01b0316146104c85760405162461bcd60e51b815260040161022690610f2a565b6104d1826107d7565b6104dd828260016107df565b5050565b6000306001600160a01b037f000000000000000000000000000000000000000000000000000000000000000016146105815760405162461bcd60e51b815260206004820152603860248201527f555550535570677261646561626c653a206d757374206e6f742062652063616c60448201527f6c6564207468726f7567682064656c656761746563616c6c00000000000000006064820152608401610226565b506000805160206110ec83398151915290565b61059c6109a0565b6105a660006109fa565b565b60008060c960009054906101000a90046001600160a01b03166001600160a01b031663b83ac19f6040518163ffffffff1660e01b8152600401602060405180830381865afa1580156105fe573d6000803e3d6000fd5b505050506040513d601f19601f820116820180604052508101906106229190610f76565b604051630f5d2cd560e11b815233600482015260248101899052600060448201526001600160a01b039190911690631eba59aa90606401602060405180830381865afa158015610676573d6000803e3d6000fd5b505050506040513d601f19601f8201168201806040525081019061069a9190610f93565b116106d65760405162461bcd60e51b815260206004820152600c60248201526b12d15657d393d517d211531160a21b6044820152606401610226565b60ca54604051633802764f60e21b81526001600160a01b039091169063e009d93c90610712908b908b908b908b908b908b908b90600401610fde565b6020604051808303816000875af1158015610731573d6000803e3d6000fd5b505050506040513d601f19601f820116820180604052508101906107559190610f93565b98975050505050505050565b6107696109a0565b6001600160a01b0381166107ce5760405162461bcd60e51b815260206004820152602660248201527f4f776e61626c653a206e6577206f776e657220697320746865207a65726f206160448201526564647265737360d01b6064820152608401610226565b6102c3816109fa565b6102c36109a0565b7f4910fdfa16fed3260ed0e7147f7cc6da11a60208b5b9406d12a635614ffd91435460ff16156108125761040c83610a4c565b826001600160a01b03166352d1902d6040518163ffffffff1660e01b8152600401602060405180830381865afa92505050801561086c575060408051601f3d908101601f1916820190925261086991810190610f93565b60015b6108cf5760405162461bcd60e51b815260206004820152602e60248201527f45524331393637557067726164653a206e657720696d706c656d656e7461746960448201526d6f6e206973206e6f74205555505360901b6064820152608401610226565b6000805160206110ec833981519152811461093e5760405162461bcd60e51b815260206004820152602960248201527f45524331393637557067726164653a20756e737570706f727465642070726f786044820152681a58589b195555525160ba1b6064820152608401610226565b5061040c838383610ae8565b600054610100900460ff166109715760405162461bcd60e51b81526004016102269061102d565b6105a6610b13565b600054610100900460ff166105a65760405162461bcd60e51b81526004016102269061102d565b6033546001600160a01b031633146105a65760405162461bcd60e51b815260206004820181905260248201527f4f776e61626c653a2063616c6c6572206973206e6f7420746865206f776e65726044820152606401610226565b603380546001600160a01b038381166001600160a01b0319831681179093556040519116919082907f8be0079c531659141344cd1fd0a4f28419497f9722a3daafe3b4186f6b6457e090600090a35050565b6001600160a01b0381163b610ab95760405162461bcd60e51b815260206004820152602d60248201527f455243313936373a206e657720696d706c656d656e746174696f6e206973206e60448201526c1bdd08184818dbdb9d1c9858dd609a1b6064820152608401610226565b6000805160206110ec83398151915280546001600160a01b0319166001600160a01b0392909216919091179055565b610af183610b43565b600082511180610afe5750805b1561040c57610b0d8383610b83565b50505050565b600054610100900460ff16610b3a5760405162461bcd60e51b81526004016102269061102d565b6105a6336109fa565b610b4c81610a4c565b6040516001600160a01b038216907fbc7cd75a20ee27fd9adebab32041f755214dbc6bffa90cc0225b39da2e5c2d3b90600090a250565b60606001600160a01b0383163b610beb5760405162461bcd60e51b815260206004820152602660248201527f416464726573733a2064656c65676174652063616c6c20746f206e6f6e2d636f6044820152651b9d1c9858dd60d21b6064820152608401610226565b600080846001600160a01b031684604051610c06919061109c565b600060405180830381855af49150503d8060008114610c41576040519150601f19603f3d011682016040523d82523d6000602084013e610c46565b606091505b5091509150610c6e828260405180606001604052806027815260200161110c60279139610c77565b95945050505050565b60608315610c86575081610cb0565b825115610c965782518084602001fd5b8160405162461bcd60e51b815260040161022691906110b8565b9392505050565b6001600160a01b03811681146102c357600080fd5b600060208284031215610cde57600080fd5b8135610cb081610cb7565b60008060408385031215610cfc57600080fd5b8235610d0781610cb7565b91506020830135610d1781610cb7565b809150509250929050565b634e487b7160e01b600052604160045260246000fd5b60008060408385031215610d4b57600080fd5b8235610d5681610cb7565b9150602083013567ffffffffffffffff80821115610d7357600080fd5b818501915085601f830112610d8757600080fd5b813581811115610d9957610d99610d22565b604051601f8201601f19908116603f01168101908382118183101715610dc157610dc1610d22565b81604052828152886020848701011115610dda57600080fd5b8260208601602083013760006020848301015280955050505050509250929050565b60008083601f840112610e0e57600080fd5b50813567ffffffffffffffff811115610e2657600080fd5b6020830191508360208260051b8501011115610e4157600080fd5b9250929050565b600080600080600080600060a0888a031215610e6357600080fd5b8735610e6e81610cb7565b96506020880135955060408801359450606088013567ffffffffffffffff80821115610e9957600080fd5b610ea58b838c01610dfc565b909650945060808a0135915080821115610ebe57600080fd5b50610ecb8a828b01610dfc565b989b979a50959850939692959293505050565b6020808252602c908201527f46756e6374696f6e206d7573742062652063616c6c6564207468726f7567682060408201526b19195b1959d85d1958d85b1b60a21b606082015260800190565b6020808252602c908201527f46756e6374696f6e206d7573742062652063616c6c6564207468726f7567682060408201526b6163746976652070726f787960a01b606082015260800190565b600060208284031215610f8857600080fd5b8151610cb081610cb7565b600060208284031215610fa557600080fd5b5051919050565b81835260006001600160fb1b03831115610fc557600080fd5b8260051b80836020870137939093016020019392505050565b60018060a01b038816815286602082015285604082015260a06060820152600061100c60a083018688610fac565b828103608084015261101f818587610fac565b9a9950505050505050505050565b6020808252602b908201527f496e697469616c697a61626c653a20636f6e7472616374206973206e6f74206960408201526a6e697469616c697a696e6760a81b606082015260800190565b60005b8381101561109357818101518382015260200161107b565b50506000910152565b600082516110ae818460208701611078565b9190910192915050565b60208152600082518060208401526110d7816040850160208701611078565b601f01601f1916919091016040019291505056fe360894a13ba1a3210667c828492db98dca3e2076cc3735a920a3ca505d382bbc416464726573733a206c6f772d6c6576656c2064656c65676174652063616c6c206661696c6564a2646970667358221220aea5ae8115a66df811add59a3df0860a20e916a1949d043efafc1b0fd01a666564736f6c63430008100033",
  "linkReferences": {},
  "deployedLinkReferences": {}
}