{
  "_format": "hh-sol-artifact-1",
  "contractName": "KeyLocker",
  "sourceName": "contracts/KeyLocker.sol",
  "abi": [
    {
      "inputs": [],
      "stateMutability": "nonpayable",
      "type": "constructor"
    },
    {
      "anonymous": false,
      "inputs": [
        {
          "indexed": false,
          "internalType": "address",
          "name": "previousAdmin",
          "type": "address"
        },
        {
          "indexed": false,
          "internalType": "address",
          "name": "newAdmin",
          "type": "address"
        }
      ],
      "name": "AdminChanged",
      "type": "event"
    },
    {
      "anonymous": false,
      "inputs": [
        {
          "indexed": true,
          "internalType": "address",
          "name": "beacon",
          "type": "address"
        }
      ],
      "name": "BeaconUpgraded",
      "type": "event"
    },
    {
      "anonymous": false,
      "inputs": [
        {
          "indexed": false,
          "internalType": "uint8",
          "name": "version",
          "type": "uint8"
        }
      ],
      "name": "Initialized",
      "type": "event"
    },
    {
      "anonymous": false,
      "inputs": [
        {
          "indexed": true,
          "internalType": "address",
          "name": "previousOwner",
          "type": "address"
        },
        {
          "indexed": true,
          "internalType": "address",
          "name": "newOwner",
          "type": "address"
        }
      ],
      "name": "OwnershipTransferred",
      "type": "event"
    },
    {
      "anonymous": false,
      "inputs": [
        {
          "indexed": true,
          "internalType": "address",
          "name": "implementation",
          "type": "address"
        }
      ],
      "name": "Upgraded",
      "type": "event"
    },
    {
      "anonymous": false,
      "inputs": [
        {
          "indexed": false,
          "internalType": "address",
          "name": "operator",
          "type": "address"
        },
        {
          "indexed": false,
          "internalType": "address",
          "name": "locksmith",
          "type": "address"
        },
        {
          "indexed": false,
          "internalType": "uint256",
          "name": "keyId",
          "type": "uint256"
        },
        {
          "indexed": false,
          "internalType": "uint256",
          "name": "amount",
          "type": "uint256"
        }
      ],
      "name": "keyLockerDeposit",
      "type": "event"
    },
    {
      "anonymous": false,
      "inputs": [
        {
          "indexed": false,
          "internalType": "address",
          "name": "operator",
          "type": "address"
        },
        {
          "indexed": false,
          "internalType": "address",
          "name": "locksmith",
          "type": "address"
        },
        {
          "indexed": false,
          "internalType": "uint256",
          "name": "keyId",
          "type": "uint256"
        },
        {
          "indexed": false,
          "internalType": "uint256",
          "name": "count",
          "type": "uint256"
        },
        {
          "indexed": false,
          "internalType": "address",
          "name": "destination",
          "type": "address"
        }
      ],
      "name": "keyLockerLoan",
      "type": "event"
    },
    {
      "anonymous": false,
      "inputs": [
        {
          "indexed": false,
          "internalType": "address",
          "name": "operator",
          "type": "address"
        },
        {
          "indexed": false,
          "internalType": "address",
          "name": "locksmith",
          "type": "address"
        },
        {
          "indexed": false,
          "internalType": "uint256",
          "name": "rootKeyId",
          "type": "uint256"
        },
        {
          "indexed": false,
          "internalType": "uint256",
          "name": "keyId",
          "type": "uint256"
        },
        {
          "indexed": false,
          "internalType": "uint256",
          "name": "amount",
          "type": "uint256"
        }
      ],
      "name": "keyLockerWithdrawal",
      "type": "event"
    },
    {
      "inputs": [],
      "name": "initialize",
      "outputs": [],
      "stateMutability": "nonpayable",
      "type": "function"
    },
    {
      "inputs": [
        {
          "internalType": "address",
          "name": "",
          "type": "address"
        },
        {
          "internalType": "address",
          "name": "",
          "type": "address"
        },
        {
          "internalType": "uint256[]",
          "name": "",
          "type": "uint256[]"
        },
        {
          "internalType": "uint256[]",
          "name": "",
          "type": "uint256[]"
        },
        {
          "internalType": "bytes",
          "name": "",
          "type": "bytes"
        }
      ],
      "name": "onERC1155BatchReceived",
      "outputs": [
        {
          "internalType": "bytes4",
          "name": "",
          "type": "bytes4"
        }
      ],
      "stateMutability": "nonpayable",
      "type": "function"
    },
    {
      "inputs": [
        {
          "internalType": "address",
          "name": "",
          "type": "address"
        },
        {
          "internalType": "address",
          "name": "from",
          "type": "address"
        },
        {
          "internalType": "uint256",
          "name": "keyId",
          "type": "uint256"
        },
        {
          "internalType": "uint256",
          "name": "count",
          "type": "uint256"
        },
        {
          "internalType": "bytes",
          "name": "data",
          "type": "bytes"
        }
      ],
      "name": "onERC1155Received",
      "outputs": [
        {
          "internalType": "bytes4",
          "name": "",
          "type": "bytes4"
        }
      ],
      "stateMutability": "nonpayable",
      "type": "function"
    },
    {
      "inputs": [],
      "name": "owner",
      "outputs": [
        {
          "internalType": "address",
          "name": "",
          "type": "address"
        }
      ],
      "stateMutability": "view",
      "type": "function"
    },
    {
      "inputs": [],
      "name": "proxiableUUID",
      "outputs": [
        {
          "internalType": "bytes32",
          "name": "",
          "type": "bytes32"
        }
      ],
      "stateMutability": "view",
      "type": "function"
    },
    {
      "inputs": [
        {
          "internalType": "address",
          "name": "locksmith",
          "type": "address"
        },
        {
          "internalType": "uint256",
          "name": "rootKeyId",
          "type": "uint256"
        },
        {
          "internalType": "uint256",
          "name": "keyId",
          "type": "uint256"
        },
        {
          "internalType": "uint256",
          "name": "amount",
          "type": "uint256"
        }
      ],
      "name": "redeemKeys",
      "outputs": [],
      "stateMutability": "nonpayable",
      "type": "function"
    },
    {
      "inputs": [],
      "name": "renounceOwnership",
      "outputs": [],
      "stateMutability": "nonpayable",
      "type": "function"
    },
    {
      "inputs": [
        {
          "internalType": "bytes4",
          "name": "interfaceId",
          "type": "bytes4"
        }
      ],
      "name": "supportsInterface",
      "outputs": [
        {
          "internalType": "bool",
          "name": "",
          "type": "bool"
        }
      ],
      "stateMutability": "view",
      "type": "function"
    },
    {
      "inputs": [
        {
          "internalType": "address",
          "name": "newOwner",
          "type": "address"
        }
      ],
      "name": "transferOwnership",
      "outputs": [],
      "stateMutability": "nonpayable",
      "type": "function"
    },
    {
      "inputs": [
        {
          "internalType": "address",
          "name": "newImplementation",
          "type": "address"
        }
      ],
      "name": "upgradeTo",
      "outputs": [],
      "stateMutability": "nonpayable",
      "type": "function"
    },
    {
      "inputs": [
        {
          "internalType": "address",
          "name": "newImplementation",
          "type": "address"
        },
        {
          "internalType": "bytes",
          "name": "data",
          "type": "bytes"
        }
      ],
      "name": "upgradeToAndCall",
      "outputs": [],
      "stateMutability": "payable",
      "type": "function"
    },
    {
      "inputs": [
        {
          "internalType": "address",
          "name": "locksmith",
          "type": "address"
        },
        {
          "internalType": "uint256",
          "name": "keyId",
          "type": "uint256"
        },
        {
          "internalType": "uint256",
          "name": "amount",
          "type": "uint256"
        },
        {
          "internalType": "address",
          "name": "destination",
          "type": "address"
        },
        {
          "internalType": "bytes",
          "name": "data",
          "type": "bytes"
        }
      ],
      "name": "useKeys",
      "outputs": [],
      "stateMutability": "nonpayable",
      "type": "function"
    }
  ],
  "bytecode": "0x60a06040523060805234801561001457600080fd5b5061001d610022565b6100e2565b600054610100900460ff161561008e5760405162461bcd60e51b815260206004820152602760248201527f496e697469616c697a61626c653a20636f6e747261637420697320696e697469604482015266616c697a696e6760c81b606482015260840160405180910390fd5b60005460ff90811610156100e0576000805460ff191660ff9081179091556040519081527f7f26b83ff96e1f2b6a682f133852f6798a09c465da95921460cefb38474024989060200160405180910390a15b565b60805161217f6200011a60003960008181610291015281816102da01528181610379015281816103b9015261044c015261217f6000f3fe6080604052600436106100a75760003560e01c80638129fc1c116100645780638129fc1c1461016e578063816dac14146101835780638da5cb5b146101a3578063bc197c81146101cb578063f23a6e6114610210578063f2fde38b1461023057600080fd5b806301ffc9a7146100ac5780633659cfe6146100e15780634f1ef2861461010357806352d1902d1461011657806354d178e414610139578063715018a614610159575b600080fd5b3480156100b857600080fd5b506100cc6100c7366004611979565b610250565b60405190151581526020015b60405180910390f35b3480156100ed57600080fd5b506101016100fc3660046119b8565b610287565b005b610101610111366004611ac3565b61036f565b34801561012257600080fd5b5061012b61043f565b6040519081526020016100d8565b34801561014557600080fd5b50610101610154366004611b13565b6104f2565b34801561016557600080fd5b506101016109d8565b34801561017a57600080fd5b506101016109ec565b34801561018f57600080fd5b5061010161019e366004611b4e565b610b04565b3480156101af57600080fd5b506033546040516001600160a01b0390911681526020016100d8565b3480156101d757600080fd5b506101f76101e6366004611c4e565b63bc197c8160e01b95945050505050565b6040516001600160e01b031990911681526020016100d8565b34801561021c57600080fd5b506101f761022b366004611cef565b610b19565b34801561023c57600080fd5b5061010161024b3660046119b8565b610e29565b60006001600160e01b03198216630271189760e51b148061028157506301ffc9a760e01b6001600160e01b03198316145b92915050565b6001600160a01b037f00000000000000000000000000000000000000000000000000000000000000001630036102d85760405162461bcd60e51b81526004016102cf90611d4c565b60405180910390fd5b7f00000000000000000000000000000000000000000000000000000000000000006001600160a01b0316610321600080516020612103833981519152546001600160a01b031690565b6001600160a01b0316146103475760405162461bcd60e51b81526004016102cf90611d98565b61035081610e9f565b6040805160008082526020820190925261036c91839190610ea7565b50565b6001600160a01b037f00000000000000000000000000000000000000000000000000000000000000001630036103b75760405162461bcd60e51b81526004016102cf90611d4c565b7f00000000000000000000000000000000000000000000000000000000000000006001600160a01b0316610400600080516020612103833981519152546001600160a01b031690565b6001600160a01b0316146104265760405162461bcd60e51b81526004016102cf90611d98565b61042f82610e9f565b61043b82826001610ea7565b5050565b6000306001600160a01b037f000000000000000000000000000000000000000000000000000000000000000016146104df5760405162461bcd60e51b815260206004820152603860248201527f555550535570677261646561626c653a206d757374206e6f742062652063616c60448201527f6c6564207468726f7567682064656c656761746563616c6c000000000000000060648201526084016102cf565b5060008051602061210383398151915290565b600081116105335760405162461bcd60e51b815260206004820152600e60248201526d1253959053125117d05353d5539560921b60448201526064016102cf565b80846001600160a01b031663b83ac19f6040518163ffffffff1660e01b8152600401602060405180830381865afa158015610572573d6000803e3d6000fd5b505050506040513d601f19601f820116820180604052508101906105969190611de4565b6001600160a01b0316631eba59aa308560006040518463ffffffff1660e01b81526004016105c693929190611e01565b602060405180830381865afa1580156105e3573d6000803e3d6000fd5b505050506040513d601f19601f820116820180604052508101906106079190611e24565b10156106495760405162461bcd60e51b8152602060048201526011602482015270494e53554646494349454e545f4b45595360781b60448201526064016102cf565b6040516344766d2960e11b8152600481018390526000906001600160a01b038616906388ecda5290602401600060405180830381865afa158015610691573d6000803e3d6000fd5b505050506040513d6000823e601f3d908101601f191682016040526106b99190810190611e52565b505092505050600080866001600160a01b03166388ecda52876040518263ffffffff1660e01b81526004016106f091815260200190565b600060405180830381865afa15801561070d573d6000803e3d6000fd5b505050506040513d6000823e601f3d908101601f191682016040526107359190810190611e52565b5093509350505080801561074857508183145b6107875760405162461bcd60e51b815260206004820152601060248201526f494e56414c49445f524f4f545f4b455960801b60448201526064016102cf565b6000876001600160a01b031663b83ac19f6040518163ffffffff1660e01b8152600401602060405180830381865afa1580156107c7573d6000803e3d6000fd5b505050506040513d601f19601f820116820180604052508101906107eb9190611de4565b6001600160a01b0316631eba59aa338960006040518463ffffffff1660e01b815260040161081b93929190611e01565b602060405180830381865afa158015610838573d6000803e3d6000fd5b505050506040513d601f19601f8201168201806040525081019061085c9190611e24565b116108985760405162461bcd60e51b815260206004820152600c60248201526b15539055551213d49256915160a21b60448201526064016102cf565b866001600160a01b031663b83ac19f6040518163ffffffff1660e01b8152600401602060405180830381865afa1580156108d6573d6000803e3d6000fd5b505050506040513d601f19601f820116820180604052508101906108fa9190611de4565b604051637921219560e11b8152306004820152336024820152604481018790526064810186905260a06084820152600060a48201526001600160a01b03919091169063f242432a9060c401600060405180830381600087803b15801561095f57600080fd5b505af1158015610973573d6000803e3d6000fd5b5050604080513381526001600160a01b038b16602082015290810189905260608101889052608081018790527f746f04626afbab6e36dbb513f5d7628c9d467d1fd79724087328d4488c11da7b925060a001905060405180910390a150505050505050565b6109e0611017565b6109ea6000611071565b565b600054610100900460ff1615808015610a0c5750600054600160ff909116105b80610a265750303b158015610a26575060005460ff166001145b610a895760405162461bcd60e51b815260206004820152602e60248201527f496e697469616c697a61626c653a20636f6e747261637420697320616c72656160448201526d191e481a5b9a5d1a585b1a5e995960921b60648201526084016102cf565b6000805460ff191660011790558015610aac576000805461ff0019166101001790555b610ab46110c3565b610abc6110f2565b801561036c576000805461ff0019169055604051600181527f7f26b83ff96e1f2b6a682f133852f6798a09c465da95921460cefb38474024989060200160405180910390a150565b610b12338686868686611119565b5050505050565b60007f419ba344522b3c8934d036ec918aeab3ec642260a80d5b9b038cf313633d880785336001600160a01b03166313fb817e6040518163ffffffff1660e01b8152600401602060405180830381865afa158015610b7b573d6000803e3d6000fd5b505050506040513d601f19601f82011682018060405250810190610b9f9190611de4565b604080516001600160a01b03938416815292909116602083015281018690526060810185905260800160405180910390a1336001600160a01b03166313fb817e6040518163ffffffff1660e01b8152600401602060405180830381865afa158015610c0e573d6000803e3d6000fd5b505050506040513d601f19601f82011682018060405250810190610c329190611de4565b6001600160a01b031663d2bd0fad856040518263ffffffff1660e01b8152600401610c5f91815260200190565b602060405180830381865afa158015610c7c573d6000803e3d6000fd5b505050506040513d601f19601f82011682018060405250810190610ca09190611f1a565b8015610cad575060008251115b15610e1757600082806020019051810190610cc89190611f59565b9050336001600160a01b03166313fb817e6040518163ffffffff1660e01b8152600401602060405180830381865afa158015610d08573d6000803e3d6000fd5b505050506040513d601f19601f82011682018060405250810190610d2c9190611de4565b6040516310c7d47360e11b815260048101879052602481018790526001600160a01b03888116604483015260016064830152919091169063218fa8e690608401600060405180830381600087803b158015610d8657600080fd5b505af1158015610d9a573d6000803e3d6000fd5b50505050610e1586336001600160a01b03166313fb817e6040518163ffffffff1660e01b8152600401602060405180830381865afa158015610de0573d6000803e3d6000fd5b505050506040513d601f19601f82011682018060405250810190610e049190611de4565b878785600001518660200151611119565b505b5063f23a6e6160e01b95945050505050565b610e31611017565b6001600160a01b038116610e965760405162461bcd60e51b815260206004820152602660248201527f4f776e61626c653a206e6577206f776e657220697320746865207a65726f206160448201526564647265737360d01b60648201526084016102cf565b61036c81611071565b61036c611017565b7f4910fdfa16fed3260ed0e7147f7cc6da11a60208b5b9406d12a635614ffd91435460ff1615610edf57610eda8361170e565b505050565b826001600160a01b03166352d1902d6040518163ffffffff1660e01b8152600401602060405180830381865afa925050508015610f39575060408051601f3d908101601f19168201909252610f3691810190611e24565b60015b610f9c5760405162461bcd60e51b815260206004820152602e60248201527f45524331393637557067726164653a206e657720696d706c656d656e7461746960448201526d6f6e206973206e6f74205555505360901b60648201526084016102cf565b600080516020612103833981519152811461100b5760405162461bcd60e51b815260206004820152602960248201527f45524331393637557067726164653a20756e737570706f727465642070726f786044820152681a58589b195555525160ba1b60648201526084016102cf565b50610eda8383836117aa565b6033546001600160a01b031633146109ea5760405162461bcd60e51b815260206004820181905260248201527f4f776e61626c653a2063616c6c6572206973206e6f7420746865206f776e657260448201526064016102cf565b603380546001600160a01b038381166001600160a01b0319831681179093556040519116919082907f8be0079c531659141344cd1fd0a4f28419497f9722a3daafe3b4186f6b6457e090600090a35050565b600054610100900460ff166110ea5760405162461bcd60e51b81526004016102cf90612017565b6109ea6117d5565b600054610100900460ff166109ea5760405162461bcd60e51b81526004016102cf90612017565b6000856001600160a01b031663b83ac19f6040518163ffffffff1660e01b8152600401602060405180830381865afa158015611159573d6000803e3d6000fd5b505050506040513d601f19601f8201168201806040525081019061117d9190611de4565b6001600160a01b0316631eba59aa308760006040518463ffffffff1660e01b81526004016111ad93929190611e01565b602060405180830381865afa1580156111ca573d6000803e3d6000fd5b505050506040513d601f19601f820116820180604052508101906111ee9190611e24565b90506000866001600160a01b031663b83ac19f6040518163ffffffff1660e01b8152600401602060405180830381865afa158015611230573d6000803e3d6000fd5b505050506040513d601f19601f820116820180604052508101906112549190611de4565b6001600160a01b0316631eba59aa898860006040518463ffffffff1660e01b815260040161128493929190611e01565b602060405180830381865afa1580156112a1573d6000803e3d6000fd5b505050506040513d601f19601f820116820180604052508101906112c59190611e24565b90508482101561130b5760405162461bcd60e51b8152602060048201526011602482015270494e53554646494349454e545f4b45595360781b60448201526064016102cf565b60405163a2155c4f60e01b81526001600160a01b0389811660048301526024820188905288169063a2155c4f90604401602060405180830381865afa158015611358573d6000803e3d6000fd5b505050506040513d601f19601f8201168201806040525081019061137c9190611f1a565b6113b75760405162461bcd60e51b815260206004820152600c60248201526b15539055551213d49256915160a21b60448201526064016102cf565b604080516001600160a01b038a811682528981166020830152818301899052606082018890528616608082015290517f95cc1e5a765c43fd6c9eb4821c5ef83bc6b9e565fd8d093ad270794daaf3be8e9181900360a00190a1866001600160a01b031663b83ac19f6040518163ffffffff1660e01b8152600401602060405180830381865afa15801561144e573d6000803e3d6000fd5b505050506040513d601f19601f820116820180604052508101906114729190611de4565b6001600160a01b031663f242432a30868989886040518663ffffffff1660e01b81526004016114a595949392919061208e565b600060405180830381600087803b1580156114bf57600080fd5b505af11580156114d3573d6000803e3d6000fd5b5050505081876001600160a01b031663b83ac19f6040518163ffffffff1660e01b8152600401602060405180830381865afa158015611516573d6000803e3d6000fd5b505050506040513d601f19601f8201168201806040525081019061153a9190611de4565b6001600160a01b0316631eba59aa308960006040518463ffffffff1660e01b815260040161156a93929190611e01565b602060405180830381865afa158015611587573d6000803e3d6000fd5b505050506040513d601f19601f820116820180604052508101906115ab9190611e24565b10156115ec5760405162461bcd60e51b815260206004820152601060248201526f12d15657d393d517d49155155493915160821b60448201526064016102cf565b80876001600160a01b031663b83ac19f6040518163ffffffff1660e01b8152600401602060405180830381865afa15801561162b573d6000803e3d6000fd5b505050506040513d601f19601f8201168201806040525081019061164f9190611de4565b6001600160a01b0316631eba59aa8a8960006040518463ffffffff1660e01b815260040161167f93929190611e01565b602060405180830381865afa15801561169c573d6000803e3d6000fd5b505050506040513d601f19601f820116820180604052508101906116c09190611e24565b10156117045760405162461bcd60e51b815260206004820152601360248201527210d05313115497d2d15657d4d5149254141151606a1b60448201526064016102cf565b5050505050505050565b6001600160a01b0381163b61177b5760405162461bcd60e51b815260206004820152602d60248201527f455243313936373a206e657720696d706c656d656e746174696f6e206973206e60448201526c1bdd08184818dbdb9d1c9858dd609a1b60648201526084016102cf565b60008051602061210383398151915280546001600160a01b0319166001600160a01b0392909216919091179055565b6117b383611805565b6000825111806117c05750805b15610eda576117cf8383611845565b50505050565b600054610100900460ff166117fc5760405162461bcd60e51b81526004016102cf90612017565b6109ea33611071565b61180e8161170e565b6040516001600160a01b038216907fbc7cd75a20ee27fd9adebab32041f755214dbc6bffa90cc0225b39da2e5c2d3b90600090a250565b60606001600160a01b0383163b6118ad5760405162461bcd60e51b815260206004820152602660248201527f416464726573733a2064656c65676174652063616c6c20746f206e6f6e2d636f6044820152651b9d1c9858dd60d21b60648201526084016102cf565b600080846001600160a01b0316846040516118c891906120d3565b600060405180830381855af49150503d8060008114611903576040519150601f19603f3d011682016040523d82523d6000602084013e611908565b606091505b5091509150611930828260405180606001604052806027815260200161212360279139611939565b95945050505050565b60608315611948575081611972565b8251156119585782518084602001fd5b8160405162461bcd60e51b81526004016102cf91906120ef565b9392505050565b60006020828403121561198b57600080fd5b81356001600160e01b03198116811461197257600080fd5b6001600160a01b038116811461036c57600080fd5b6000602082840312156119ca57600080fd5b8135611972816119a3565b634e487b7160e01b600052604160045260246000fd5b6040805190810167ffffffffffffffff81118282101715611a0e57611a0e6119d5565b60405290565b604051601f8201601f1916810167ffffffffffffffff81118282101715611a3d57611a3d6119d5565b604052919050565b600067ffffffffffffffff821115611a5f57611a5f6119d5565b50601f01601f191660200190565b600082601f830112611a7e57600080fd5b8135611a91611a8c82611a45565b611a14565b818152846020838601011115611aa657600080fd5b816020850160208301376000918101602001919091529392505050565b60008060408385031215611ad657600080fd5b8235611ae1816119a3565b9150602083013567ffffffffffffffff811115611afd57600080fd5b611b0985828601611a6d565b9150509250929050565b60008060008060808587031215611b2957600080fd5b8435611b34816119a3565b966020860135965060408601359560600135945092505050565b600080600080600060a08688031215611b6657600080fd5b8535611b71816119a3565b945060208601359350604086013592506060860135611b8f816119a3565b9150608086013567ffffffffffffffff811115611bab57600080fd5b611bb788828901611a6d565b9150509295509295909350565b600067ffffffffffffffff821115611bde57611bde6119d5565b5060051b60200190565b600082601f830112611bf957600080fd5b81356020611c09611a8c83611bc4565b82815260059290921b84018101918181019086841115611c2857600080fd5b8286015b84811015611c435780358352918301918301611c2c565b509695505050505050565b600080600080600060a08688031215611c6657600080fd5b8535611c71816119a3565b94506020860135611c81816119a3565b9350604086013567ffffffffffffffff80821115611c9e57600080fd5b611caa89838a01611be8565b94506060880135915080821115611cc057600080fd5b611ccc89838a01611be8565b93506080880135915080821115611ce257600080fd5b50611bb788828901611a6d565b600080600080600060a08688031215611d0757600080fd5b8535611d12816119a3565b94506020860135611d22816119a3565b93506040860135925060608601359150608086013567ffffffffffffffff811115611bab57600080fd5b6020808252602c908201527f46756e6374696f6e206d7573742062652063616c6c6564207468726f7567682060408201526b19195b1959d85d1958d85b1b60a21b606082015260800190565b6020808252602c908201527f46756e6374696f6e206d7573742062652063616c6c6564207468726f7567682060408201526b6163746976652070726f787960a01b606082015260800190565b600060208284031215611df657600080fd5b8151611972816119a3565b6001600160a01b0393909316835260208301919091521515604082015260600190565b600060208284031215611e3657600080fd5b5051919050565b80518015158114611e4d57600080fd5b919050565b600080600080600060a08688031215611e6a57600080fd5b611e7386611e3d565b9450602080870151945060408701519350611e9060608801611e3d565b9250608087015167ffffffffffffffff811115611eac57600080fd5b8701601f81018913611ebd57600080fd5b8051611ecb611a8c82611bc4565b81815260059190911b8201830190838101908b831115611eea57600080fd5b928401925b82841015611f0857835182529284019290840190611eef565b80955050505050509295509295909350565b600060208284031215611f2c57600080fd5b61197282611e3d565b60005b83811015611f50578181015183820152602001611f38565b50506000910152565b60006020808385031215611f6c57600080fd5b825167ffffffffffffffff80821115611f8457600080fd5b9084019060408287031215611f9857600080fd5b611fa06119eb565b8251611fab816119a3565b81528284015182811115611fbe57600080fd5b80840193505086601f840112611fd357600080fd5b82519150611fe3611a8c83611a45565b8281528785848601011115611ff757600080fd5b61200683868301878701611f35565b938101939093525090949350505050565b6020808252602b908201527f496e697469616c697a61626c653a20636f6e7472616374206973206e6f74206960408201526a6e697469616c697a696e6760a81b606082015260800190565b6000815180845261207a816020860160208601611f35565b601f01601f19169290920160200192915050565b6001600160a01b03868116825285166020820152604081018490526060810183905260a0608082018190526000906120c890830184612062565b979650505050505050565b600082516120e5818460208701611f35565b9190910192915050565b602081526000611972602083018461206256fe360894a13ba1a3210667c828492db98dca3e2076cc3735a920a3ca505d382bbc416464726573733a206c6f772d6c6576656c2064656c65676174652063616c6c206661696c6564a26469706673582212201e14e72e7f057edc8a6cf108c9a6703274cf0ada7e9771fec995398b5dfe1ac264736f6c63430008100033",
  "linkReferences": {},
  "deployedLinkReferences": {}
}