{
  "_format": "hh-sol-artifact-1",
  "contractName": "Ledger",
  "sourceName": "contracts/Ledger.sol",
  "abi": [
    {
      "inputs": [],
      "stateMutability": "nonpayable",
      "type": "constructor"
    },
    {
      "anonymous": false,
      "inputs": [
        {
          "indexed": false,
          "internalType": "address",
          "name": "previousAdmin",
          "type": "address"
        },
        {
          "indexed": false,
          "internalType": "address",
          "name": "newAdmin",
          "type": "address"
        }
      ],
      "name": "AdminChanged",
      "type": "event"
    },
    {
      "anonymous": false,
      "inputs": [
        {
          "indexed": true,
          "internalType": "address",
          "name": "beacon",
          "type": "address"
        }
      ],
      "name": "BeaconUpgraded",
      "type": "event"
    },
    {
      "anonymous": false,
      "inputs": [
        {
          "indexed": false,
          "internalType": "uint8",
          "name": "version",
          "type": "uint8"
        }
      ],
      "name": "Initialized",
      "type": "event"
    },
    {
      "anonymous": false,
      "inputs": [
        {
          "indexed": true,
          "internalType": "address",
          "name": "previousOwner",
          "type": "address"
        },
        {
          "indexed": true,
          "internalType": "address",
          "name": "newOwner",
          "type": "address"
        }
      ],
      "name": "OwnershipTransferred",
      "type": "event"
    },
    {
      "anonymous": false,
      "inputs": [
        {
          "indexed": true,
          "internalType": "address",
          "name": "implementation",
          "type": "address"
        }
      ],
      "name": "Upgraded",
      "type": "event"
    },
    {
      "anonymous": false,
      "inputs": [
        {
          "indexed": false,
          "internalType": "address",
          "name": "provider",
          "type": "address"
        },
        {
          "indexed": false,
          "internalType": "uint256",
          "name": "trustId",
          "type": "uint256"
        },
        {
          "indexed": false,
          "internalType": "uint256",
          "name": "keyId",
          "type": "uint256"
        },
        {
          "indexed": false,
          "internalType": "bytes32",
          "name": "arn",
          "type": "bytes32"
        },
        {
          "indexed": false,
          "internalType": "uint256",
          "name": "amount",
          "type": "uint256"
        },
        {
          "indexed": false,
          "internalType": "uint256",
          "name": "keyBalance",
          "type": "uint256"
        },
        {
          "indexed": false,
          "internalType": "uint256",
          "name": "trustBalance",
          "type": "uint256"
        },
        {
          "indexed": false,
          "internalType": "uint256",
          "name": "ledgerBalance",
          "type": "uint256"
        }
      ],
      "name": "depositOccurred",
      "type": "event"
    },
    {
      "anonymous": false,
      "inputs": [
        {
          "indexed": false,
          "internalType": "address",
          "name": "scribe",
          "type": "address"
        },
        {
          "indexed": false,
          "internalType": "address",
          "name": "provider",
          "type": "address"
        },
        {
          "indexed": false,
          "internalType": "bytes32",
          "name": "arn",
          "type": "bytes32"
        },
        {
          "indexed": false,
          "internalType": "uint256",
          "name": "trustId",
          "type": "uint256"
        },
        {
          "indexed": false,
          "internalType": "uint256",
          "name": "rootKeyId",
          "type": "uint256"
        },
        {
          "indexed": false,
          "internalType": "uint256[]",
          "name": "keys",
          "type": "uint256[]"
        },
        {
          "indexed": false,
          "internalType": "uint256[]",
          "name": "amounts",
          "type": "uint256[]"
        },
        {
          "indexed": false,
          "internalType": "uint256",
          "name": "finalRootBalance",
          "type": "uint256"
        }
      ],
      "name": "ledgerTransferOccurred",
      "type": "event"
    },
    {
      "anonymous": false,
      "inputs": [
        {
          "indexed": false,
          "internalType": "address",
          "name": "provider",
          "type": "address"
        },
        {
          "indexed": false,
          "internalType": "uint256",
          "name": "trustId",
          "type": "uint256"
        },
        {
          "indexed": false,
          "internalType": "uint256",
          "name": "keyId",
          "type": "uint256"
        },
        {
          "indexed": false,
          "internalType": "bytes32",
          "name": "arn",
          "type": "bytes32"
        },
        {
          "indexed": false,
          "internalType": "uint256",
          "name": "amount",
          "type": "uint256"
        },
        {
          "indexed": false,
          "internalType": "uint256",
          "name": "keyBalance",
          "type": "uint256"
        },
        {
          "indexed": false,
          "internalType": "uint256",
          "name": "trustBalance",
          "type": "uint256"
        },
        {
          "indexed": false,
          "internalType": "uint256",
          "name": "ledgerBalance",
          "type": "uint256"
        }
      ],
      "name": "withdrawalOccurred",
      "type": "event"
    },
    {
      "inputs": [],
      "name": "KEY_CONTEXT_ID",
      "outputs": [
        {
          "internalType": "uint256",
          "name": "",
          "type": "uint256"
        }
      ],
      "stateMutability": "view",
      "type": "function"
    },
    {
      "inputs": [],
      "name": "LEDGER_CONTEXT_ID",
      "outputs": [
        {
          "internalType": "uint256",
          "name": "",
          "type": "uint256"
        }
      ],
      "stateMutability": "view",
      "type": "function"
    },
    {
      "inputs": [],
      "name": "TRUST_CONTEXT_ID",
      "outputs": [
        {
          "internalType": "uint256",
          "name": "",
          "type": "uint256"
        }
      ],
      "stateMutability": "view",
      "type": "function"
    },
    {
      "inputs": [
        {
          "internalType": "uint256",
          "name": "rootKeyId",
          "type": "uint256"
        },
        {
          "internalType": "bytes32",
          "name": "arn",
          "type": "bytes32"
        },
        {
          "internalType": "uint256",
          "name": "amount",
          "type": "uint256"
        }
      ],
      "name": "deposit",
      "outputs": [
        {
          "internalType": "uint256",
          "name": "",
          "type": "uint256"
        },
        {
          "internalType": "uint256",
          "name": "",
          "type": "uint256"
        },
        {
          "internalType": "uint256",
          "name": "",
          "type": "uint256"
        }
      ],
      "stateMutability": "nonpayable",
      "type": "function"
    },
    {
      "inputs": [
        {
          "internalType": "address",
          "name": "provider",
          "type": "address"
        },
        {
          "internalType": "bytes32",
          "name": "arn",
          "type": "bytes32"
        },
        {
          "internalType": "uint256",
          "name": "sourceKeyId",
          "type": "uint256"
        },
        {
          "internalType": "uint256[]",
          "name": "keys",
          "type": "uint256[]"
        },
        {
          "internalType": "uint256[]",
          "name": "amounts",
          "type": "uint256[]"
        }
      ],
      "name": "distribute",
      "outputs": [
        {
          "internalType": "uint256",
          "name": "",
          "type": "uint256"
        }
      ],
      "stateMutability": "nonpayable",
      "type": "function"
    },
    {
      "inputs": [
        {
          "internalType": "uint256",
          "name": "context",
          "type": "uint256"
        },
        {
          "internalType": "uint256",
          "name": "identifier",
          "type": "uint256"
        },
        {
          "internalType": "bytes32",
          "name": "arn",
          "type": "bytes32"
        }
      ],
      "name": "getContextArnAllocations",
      "outputs": [
        {
          "internalType": "address[]",
          "name": "",
          "type": "address[]"
        },
        {
          "internalType": "uint256[]",
          "name": "",
          "type": "uint256[]"
        }
      ],
      "stateMutability": "view",
      "type": "function"
    },
    {
      "inputs": [
        {
          "internalType": "uint256",
          "name": "context",
          "type": "uint256"
        },
        {
          "internalType": "uint256",
          "name": "identifier",
          "type": "uint256"
        },
        {
          "internalType": "address",
          "name": "provider",
          "type": "address"
        },
        {
          "internalType": "bytes32[]",
          "name": "arns",
          "type": "bytes32[]"
        }
      ],
      "name": "getContextArnBalances",
      "outputs": [
        {
          "internalType": "uint256[]",
          "name": "",
          "type": "uint256[]"
        }
      ],
      "stateMutability": "view",
      "type": "function"
    },
    {
      "inputs": [
        {
          "internalType": "uint256",
          "name": "context",
          "type": "uint256"
        },
        {
          "internalType": "uint256",
          "name": "identifier",
          "type": "uint256"
        },
        {
          "internalType": "address",
          "name": "provider",
          "type": "address"
        }
      ],
      "name": "getContextArnRegistry",
      "outputs": [
        {
          "internalType": "bytes32[]",
          "name": "",
          "type": "bytes32[]"
        }
      ],
      "stateMutability": "view",
      "type": "function"
    },
    {
      "inputs": [
        {
          "internalType": "uint256",
          "name": "context",
          "type": "uint256"
        },
        {
          "internalType": "uint256",
          "name": "identifier",
          "type": "uint256"
        },
        {
          "internalType": "address",
          "name": "provider",
          "type": "address"
        }
      ],
      "name": "getContextBalanceSheet",
      "outputs": [
        {
          "internalType": "bytes32[]",
          "name": "",
          "type": "bytes32[]"
        },
        {
          "internalType": "uint256[]",
          "name": "",
          "type": "uint256[]"
        }
      ],
      "stateMutability": "view",
      "type": "function"
    },
    {
      "inputs": [
        {
          "internalType": "uint256",
          "name": "context",
          "type": "uint256"
        },
        {
          "internalType": "uint256",
          "name": "identifier",
          "type": "uint256"
        },
        {
          "internalType": "bytes32",
          "name": "arn",
          "type": "bytes32"
        }
      ],
      "name": "getContextProviderRegistry",
      "outputs": [
        {
          "internalType": "address[]",
          "name": "",
          "type": "address[]"
        }
      ],
      "stateMutability": "view",
      "type": "function"
    },
    {
      "inputs": [
        {
          "internalType": "address",
          "name": "_Notary",
          "type": "address"
        }
      ],
      "name": "initialize",
      "outputs": [],
      "stateMutability": "nonpayable",
      "type": "function"
    },
    {
      "inputs": [],
      "name": "notary",
      "outputs": [
        {
          "internalType": "address",
          "name": "",
          "type": "address"
        }
      ],
      "stateMutability": "view",
      "type": "function"
    },
    {
      "inputs": [],
      "name": "owner",
      "outputs": [
        {
          "internalType": "address",
          "name": "",
          "type": "address"
        }
      ],
      "stateMutability": "view",
      "type": "function"
    },
    {
      "inputs": [],
      "name": "proxiableUUID",
      "outputs": [
        {
          "internalType": "bytes32",
          "name": "",
          "type": "bytes32"
        }
      ],
      "stateMutability": "view",
      "type": "function"
    },
    {
      "inputs": [],
      "name": "renounceOwnership",
      "outputs": [],
      "stateMutability": "nonpayable",
      "type": "function"
    },
    {
      "inputs": [
        {
          "internalType": "address",
          "name": "newOwner",
          "type": "address"
        }
      ],
      "name": "transferOwnership",
      "outputs": [],
      "stateMutability": "nonpayable",
      "type": "function"
    },
    {
      "inputs": [
        {
          "internalType": "address",
          "name": "newImplementation",
          "type": "address"
        }
      ],
      "name": "upgradeTo",
      "outputs": [],
      "stateMutability": "nonpayable",
      "type": "function"
    },
    {
      "inputs": [
        {
          "internalType": "address",
          "name": "newImplementation",
          "type": "address"
        },
        {
          "internalType": "bytes",
          "name": "data",
          "type": "bytes"
        }
      ],
      "name": "upgradeToAndCall",
      "outputs": [],
      "stateMutability": "payable",
      "type": "function"
    },
    {
      "inputs": [
        {
          "internalType": "uint256",
          "name": "keyId",
          "type": "uint256"
        },
        {
          "internalType": "bytes32",
          "name": "arn",
          "type": "bytes32"
        },
        {
          "internalType": "uint256",
          "name": "amount",
          "type": "uint256"
        }
      ],
      "name": "withdrawal",
      "outputs": [
        {
          "internalType": "uint256",
          "name": "",
          "type": "uint256"
        },
        {
          "internalType": "uint256",
          "name": "",
          "type": "uint256"
        },
        {
          "internalType": "uint256",
          "name": "",
          "type": "uint256"
        }
      ],
      "stateMutability": "nonpayable",
      "type": "function"
    }
  ],
  "bytecode": "0x60a06040523060805234801561001457600080fd5b5061001d610022565b6100e2565b600054610100900460ff161561008e5760405162461bcd60e51b815260206004820152602760248201527f496e697469616c697a61626c653a20636f6e747261637420697320696e697469604482015266616c697a696e6760c81b606482015260840160405180910390fd5b60005460ff90811610156100e0576000805460ff191660ff9081179091556040519081527f7f26b83ff96e1f2b6a682f133852f6798a09c465da95921460cefb38474024989060200160405180910390a15b565b6080516123606200011a60003960008181610545015281816105850152818161063a0152818161067a015261070d01526123606000f3fe6080604052600436106101145760003560e01c806377017792116100a0578063d84681e211610064578063d84681e214610318578063e009d93c14610338578063ed279f1914610358578063f2fde38b1461036d578063f8853b1d1461038d57600080fd5b806377017792146102635780638da5cb5b146102785780639d54c79d146102aa578063a9007803146102ca578063c4d66de8146102f857600080fd5b80634f1ef286116100e75780634f1ef286146101d557806352d1902d146101e85780635d48d49d1461020b578063715018a614610220578063761ba7581461023557600080fd5b80630331d4de1461011957806312e57629146101595780633659cfe6146101865780633fdada9e146101a8575b600080fd5b34801561012557600080fd5b50610139610134366004611af5565b6103ad565b604080519384526020840192909252908201526060015b60405180910390f35b34801561016557600080fd5b50610179610174366004611af5565b61051b565b6040516101509190611b65565b34801561019257600080fd5b506101a66101a1366004611b94565b61053b565b005b3480156101b457600080fd5b506101c86101c3366004611baf565b61061a565b6040516101509190611c14565b6101a66101e3366004611c6e565b610630565b3480156101f457600080fd5b506101fd610700565b604051908152602001610150565b34801561021757600080fd5b506101fd600081565b34801561022c57600080fd5b506101a66107b3565b34801561024157600080fd5b50610255610250366004611af5565b6107c7565b604051610150929190611d14565b34801561026f57600080fd5b506101fd600181565b34801561028457600080fd5b506033546001600160a01b03165b6040516001600160a01b039091168152602001610150565b3480156102b657600080fd5b5060c954610292906001600160a01b031681565b3480156102d657600080fd5b506102ea6102e5366004611baf565b6107ef565b604051610150929190611d39565b34801561030457600080fd5b506101a6610313366004611b94565b6108e4565b34801561032457600080fd5b50610139610333366004611af5565b610a18565b34801561034457600080fd5b506101fd610353366004611d91565b610b86565b34801561036457600080fd5b506101fd600281565b34801561037957600080fd5b506101a6610388366004611b94565b610d9d565b34801561039957600080fd5b506101c86103a8366004611e25565b610e13565b60008060008084116103f45760405162461bcd60e51b815260206004820152600b60248201526a16915493d7d05353d5539560aa1b60448201526064015b60405180910390fd5b60c95460405163bb4ec12d60e01b81523360048201526024810188905260448101879052606481018690526000916001600160a01b03169063bb4ec12d906084016020604051808303816000875af1158015610454573d6000803e3d6000fd5b505050506040513d601f19601f820116820180604052508101906104789190611e8d565b9050600061048960ca338989610edd565b600083815260d260205260408120919250906104a790338a8a610edd565b60008a815260d360205260408120919250906104c590338b8b610edd565b90507f2de93f8cac90b8d542dab00b5b11fedc8227506d3cc8e69688e2c27a7a55655733858c8c8c86888a604051610504989796959493929190611ea6565b60405180910390a199909850909650945050505050565b60606105318261052b8686611005565b9061108b565b90505b9392505050565b6001600160a01b037f00000000000000000000000000000000000000000000000000000000000000001630036105835760405162461bcd60e51b81526004016103eb90611ee7565b7f00000000000000000000000000000000000000000000000000000000000000006001600160a01b03166105cc6000805160206122e4833981519152546001600160a01b031690565b6001600160a01b0316146105f25760405162461bcd60e51b81526004016103eb90611f33565b6105fb816110c2565b60408051600080825260208201909252610617918391906110ca565b50565b60606105318261062a8686611005565b9061123a565b6001600160a01b037f00000000000000000000000000000000000000000000000000000000000000001630036106785760405162461bcd60e51b81526004016103eb90611ee7565b7f00000000000000000000000000000000000000000000000000000000000000006001600160a01b03166106c16000805160206122e4833981519152546001600160a01b031690565b6001600160a01b0316146106e75760405162461bcd60e51b81526004016103eb90611f33565b6106f0826110c2565b6106fc828260016110ca565b5050565b6000306001600160a01b037f000000000000000000000000000000000000000000000000000000000000000016146107a05760405162461bcd60e51b815260206004820152603860248201527f555550535570677261646561626c653a206d757374206e6f742062652063616c60448201527f6c6564207468726f7567682064656c656761746563616c6c000000000000000060648201526084016103eb565b506000805160206122e483398151915290565b6107bb611279565b6107c560006112d3565b565b60608060006107d68686611005565b90506107e28185611325565b9250925050935093915050565b604051631fed6d4f60e11b815260048101849052602481018390526001600160a01b038216604482015260609081906000903090633fdada9e90606401600060405180830381865afa158015610849573d6000803e3d6000fd5b505050506040513d6000823e601f3d908101601f191682016040526108719190810190611fa3565b60405163f8853b1d60e01b81529091508190309063f8853b1d9061089f908a908a908a908790600401612039565b600060405180830381865afa1580156108bc573d6000803e3d6000fd5b505050506040513d6000823e601f3d908101601f191682016040526107e29190810190611fa3565b600054610100900460ff16158080156109045750600054600160ff909116105b8061091e5750303b15801561091e575060005460ff166001145b6109815760405162461bcd60e51b815260206004820152602e60248201527f496e697469616c697a61626c653a20636f6e747261637420697320616c72656160448201526d191e481a5b9a5d1a585b1a5e995960921b60648201526084016103eb565b6000805460ff1916600117905580156109a4576000805461ff0019166101001790555b6109ac611431565b6109b4611460565b60c980546001600160a01b0319166001600160a01b03841617905580156106fc576000805461ff0019169055604051600181527f7f26b83ff96e1f2b6a682f133852f6798a09c465da95921460cefb38474024989060200160405180910390a15050565b6000806000808411610a5a5760405162461bcd60e51b815260206004820152600b60248201526a16915493d7d05353d5539560aa1b60448201526064016103eb565b60c95460405163fc9cea0560e01b81523360048201526024810188905260448101879052606481018690526000916001600160a01b03169063fc9cea05906084016020604051808303816000875af1158015610aba573d6000803e3d6000fd5b505050506040513d601f19601f82011682018060405250810190610ade9190611e8d565b90506000610aef60ca338989611487565b600083815260d26020526040812091925090610b0d90338a8a611487565b60008a815260d36020526040812091925090610b2b90338b8b611487565b9050818310158015610b3d5750808210155b610b4957610b49612070565b7fc80770ceaa2b90f03c8fb8b7226bdb6541c4468463c6b85ef241b870e993c14e33858c8c8c86888a604051610504989796959493929190611ea6565b60c95460405163563a995760e11b815260009182916001600160a01b039091169063ac7532ae90610bc99033908d908d908d908d908d908d908d906004016120b8565b6020604051808303816000875af1158015610be8573d6000803e3d6000fd5b505050506040513d601f19601f82011682018060405250810190610c0c9190611e8d565b90506000805b86811015610d295788888883818110610c2d57610c2d612115565b9050602002013503610c755760405162461bcd60e51b815260206004820152601160248201527029a2a6232fa224a9aa2924a12aaa24a7a760791b60448201526064016103eb565b6000868683818110610c8957610c89612115565b905060200201351115610d1757610cef8b8b888885818110610cad57610cad612115565b9050602002013560d360008d8d88818110610cca57610cca612115565b905060200201358152602001908152602001600020610edd909392919063ffffffff16565b50858582818110610d0257610d02612115565b9050602002013582610d149190612141565b91505b80610d2181612154565b915050610c12565b50600088815260d360205260408120610d44908c8c85611487565b90507f9956ba0ad4e8a804def4f3554854761b05eb393e91af83058f95f9161245bdf4338c8c868d8d8d8d8d8a604051610d879a9998979695949392919061216d565b60405180910390a19a9950505050505050505050565b610da5611279565b6001600160a01b038116610e0a5760405162461bcd60e51b815260206004820152602660248201527f4f776e61626c653a206e6577206f776e657220697320746865207a65726f206160448201526564647265737360d01b60648201526084016103eb565b610617816112d3565b60606000610e218787611005565b905060008367ffffffffffffffff811115610e3e57610e3e611c27565b604051908082528060200260200182016040528015610e67578160200160208202803683370190505b50905060005b84811015610ed157610ea287878784818110610e8b57610e8b612115565b905060200201358561162a9092919063ffffffff16565b828281518110610eb457610eb4612115565b602090810291909101015280610ec981612154565b915050610e6d565b50979650505050505050565b6000610eec6002860185611681565b50610ef78584611696565b506001600160a01b03841660009081526004860160205260409020610f1c9084611696565b5060008381526005860160205260409020610f379085611681565b50600083815260068601602052604081208054849290610f58908490612141565b90915550506001600160a01b0384166000908152600786016020908152604080832086845290915281208054849290610f92908490612141565b90915550506001600160a01b0384166000908152600786016020908152604080832086845282528083205460068901909252909120541015610fd657610fd6612070565b506001600160a01b03831660009081526007850160209081526040808320858452909152902054949350505050565b6000600383106110495760405162461bcd60e51b815260206004820152600f60248201526e1253959053125117d0d3d395115615608a1b60448201526064016103eb565b826001036110655750600081815260d260205260409020611085565b826002036110815750600081815260d360205260409020611085565b5060ca5b92915050565b606060008290036110a9576110a2836002016116a2565b9050611085565b60008281526005840160205260409020610534906116a2565b610617611279565b7f4910fdfa16fed3260ed0e7147f7cc6da11a60208b5b9406d12a635614ffd91435460ff1615611102576110fd836116af565b505050565b826001600160a01b03166352d1902d6040518163ffffffff1660e01b8152600401602060405180830381865afa92505050801561115c575060408051601f3d908101601f1916820190925261115991810190611e8d565b60015b6111bf5760405162461bcd60e51b815260206004820152602e60248201527f45524331393637557067726164653a206e657720696d706c656d656e7461746960448201526d6f6e206973206e6f74205555505360901b60648201526084016103eb565b6000805160206122e4833981519152811461122e5760405162461bcd60e51b815260206004820152602960248201527f45524331393637557067726164653a20756e737570706f727465642070726f786044820152681a58589b195555525160ba1b60648201526084016103eb565b506110fd83838361174b565b60606001600160a01b038216600003611256576110a283611776565b6001600160a01b0382166000908152600484016020526040902061053490611776565b6033546001600160a01b031633146107c55760405162461bcd60e51b815260206004820181905260248201527f4f776e61626c653a2063616c6c6572206973206e6f7420746865206f776e657260448201526064016103eb565b603380546001600160a01b038381166001600160a01b0319831681179093556040519116919082907f8be0079c531659141344cd1fd0a4f28419497f9722a3daafe3b4186f6b6457e090600090a35050565b600081815260058301602052604081206060918291611343906116a2565b90506000815167ffffffffffffffff81111561136157611361611c27565b60405190808252806020026020018201604052801561138a578160200160208202803683370190505b50905060005b82518160ff16101561142357866007016000848360ff16815181106113b7576113b7612115565b60200260200101516001600160a01b03166001600160a01b03168152602001908152602001600020600087815260200190815260200160002054828260ff168151811061140657611406612115565b60209081029190910101528061141b816121dd565b915050611390565b5090925090505b9250929050565b600054610100900460ff166114585760405162461bcd60e51b81526004016103eb906121fc565b6107c5611781565b600054610100900460ff166107c55760405162461bcd60e51b81526004016103eb906121fc565b600061149385846117b1565b80156114c457506001600160a01b038416600090815260078601602090815260408083208684529091529020548211155b6114fc5760405162461bcd60e51b815260206004820152600960248201526813d59154911490519560ba1b60448201526064016103eb565b60008381526006860160205260408120805484929061151c908490612247565b90915550506001600160a01b0384166000908152600786016020908152604080832086845290915281208054849290611556908490612247565b90915550506001600160a01b0384166000908152600786016020908152604080832086845290915281205490036115c8576001600160a01b038416600090815260048601602052604090206115ab90846117c9565b50600083815260058601602052604090206115c690856117d5565b505b600083815260068601602052604081205490036115eb576115e985846117c9565b505b6001600160a01b0384166000908152600786016020908152604080832086845282528083205460068901909252909120541015610fd657610fd6612070565b60006001600160a01b038316810361165357506000818152600684016020526040902054610534565b506001600160a01b038216600090815260078401602090815260408083208484529091529020549392505050565b6000610534836001600160a01b0384166117ea565b600061053483836117ea565b6060600061053483611839565b6001600160a01b0381163b61171c5760405162461bcd60e51b815260206004820152602d60248201527f455243313936373a206e657720696d706c656d656e746174696f6e206973206e60448201526c1bdd08184818dbdb9d1c9858dd609a1b60648201526084016103eb565b6000805160206122e483398151915280546001600160a01b0319166001600160a01b0392909216919091179055565b61175483611895565b6000825111806117615750805b156110fd5761177083836118d5565b50505050565b606061108582611839565b600054610100900460ff166117a85760405162461bcd60e51b81526004016103eb906121fc565b6107c5336112d3565b60008181526001830160205260408120541515610534565b600061053483836119c9565b6000610534836001600160a01b0384166119c9565b600081815260018301602052604081205461183157508154600181810184556000848152602080822090930184905584548482528286019093526040902091909155611085565b506000611085565b60608160000180548060200260200160405190810160405280929190818152602001828054801561188957602002820191906000526020600020905b815481526020019060010190808311611875575b50505050509050919050565b61189e816116af565b6040516001600160a01b038216907fbc7cd75a20ee27fd9adebab32041f755214dbc6bffa90cc0225b39da2e5c2d3b90600090a250565b60606001600160a01b0383163b61193d5760405162461bcd60e51b815260206004820152602660248201527f416464726573733a2064656c65676174652063616c6c20746f206e6f6e2d636f6044820152651b9d1c9858dd60d21b60648201526084016103eb565b600080846001600160a01b031684604051611958919061227e565b600060405180830381855af49150503d8060008114611993576040519150601f19603f3d011682016040523d82523d6000602084013e611998565b606091505b50915091506119c0828260405180606001604052806027815260200161230460279139611abc565b95945050505050565b60008181526001830160205260408120548015611ab25760006119ed600183612247565b8554909150600090611a0190600190612247565b9050818114611a66576000866000018281548110611a2157611a21612115565b9060005260206000200154905080876000018481548110611a4457611a44612115565b6000918252602080832090910192909255918252600188019052604090208390555b8554869080611a7757611a7761229a565b600190038181906000526020600020016000905590558560010160008681526020019081526020016000206000905560019350505050611085565b6000915050611085565b60608315611acb575081610534565b825115611adb5782518084602001fd5b8160405162461bcd60e51b81526004016103eb91906122b0565b600080600060608486031215611b0a57600080fd5b505081359360208301359350604090920135919050565b600081518084526020808501945080840160005b83811015611b5a5781516001600160a01b031687529582019590820190600101611b35565b509495945050505050565b6020815260006105346020830184611b21565b80356001600160a01b0381168114611b8f57600080fd5b919050565b600060208284031215611ba657600080fd5b61053482611b78565b600080600060608486031215611bc457600080fd5b8335925060208401359150611bdb60408501611b78565b90509250925092565b600081518084526020808501945080840160005b83811015611b5a57815187529582019590820190600101611bf8565b6020815260006105346020830184611be4565b634e487b7160e01b600052604160045260246000fd5b604051601f8201601f1916810167ffffffffffffffff81118282101715611c6657611c66611c27565b604052919050565b60008060408385031215611c8157600080fd5b611c8a83611b78565b915060208084013567ffffffffffffffff80821115611ca857600080fd5b818601915086601f830112611cbc57600080fd5b813581811115611cce57611cce611c27565b611ce0601f8201601f19168501611c3d565b91508082528784828501011115611cf657600080fd5b80848401858401376000848284010152508093505050509250929050565b604081526000611d276040830185611b21565b82810360208401526119c08185611be4565b604081526000611d276040830185611be4565b60008083601f840112611d5e57600080fd5b50813567ffffffffffffffff811115611d7657600080fd5b6020830191508360208260051b850101111561142a57600080fd5b600080600080600080600060a0888a031215611dac57600080fd5b611db588611b78565b96506020880135955060408801359450606088013567ffffffffffffffff80821115611de057600080fd5b611dec8b838c01611d4c565b909650945060808a0135915080821115611e0557600080fd5b50611e128a828b01611d4c565b989b979a50959850939692959293505050565b600080600080600060808688031215611e3d57600080fd5b8535945060208601359350611e5460408701611b78565b9250606086013567ffffffffffffffff811115611e7057600080fd5b611e7c88828901611d4c565b969995985093965092949392505050565b600060208284031215611e9f57600080fd5b5051919050565b6001600160a01b03989098168852602088019690965260408701949094526060860192909252608085015260a084015260c083015260e08201526101000190565b6020808252602c908201527f46756e6374696f6e206d7573742062652063616c6c6564207468726f7567682060408201526b19195b1959d85d1958d85b1b60a21b606082015260800190565b6020808252602c908201527f46756e6374696f6e206d7573742062652063616c6c6564207468726f7567682060408201526b6163746976652070726f787960a01b606082015260800190565b600067ffffffffffffffff821115611f9957611f99611c27565b5060051b60200190565b60006020808385031215611fb657600080fd5b825167ffffffffffffffff811115611fcd57600080fd5b8301601f81018513611fde57600080fd5b8051611ff1611fec82611f7f565b611c3d565b81815260059190911b8201830190838101908783111561201057600080fd5b928401925b8284101561202e57835182529284019290840190612015565b979650505050505050565b84815283602082015260018060a01b03831660408201526080606082015260006120666080830184611be4565b9695505050505050565b634e487b7160e01b600052600160045260246000fd5b81835260006001600160fb1b0383111561209f57600080fd5b8260051b80836020870137939093016020019392505050565b6001600160a01b03898116825288166020820152604081018790526060810186905260c0608082018190526000906120f39083018688612086565b82810360a0840152612106818587612086565b9b9a5050505050505050505050565b634e487b7160e01b600052603260045260246000fd5b634e487b7160e01b600052601160045260246000fd5b808201808211156110855761108561212b565b6000600182016121665761216661212b565b5060010190565b6001600160a01b038b811682528a16602082015260408101899052606081018890526080810187905261010060a082018190526000906121b0838201888a612086565b905082810360c08401526121c5818688612086565b9150508260e08301529b9a5050505050505050505050565b600060ff821660ff81036121f3576121f361212b565b60010192915050565b6020808252602b908201527f496e697469616c697a61626c653a20636f6e7472616374206973206e6f74206960408201526a6e697469616c697a696e6760a81b606082015260800190565b818103818111156110855761108561212b565b60005b8381101561227557818101518382015260200161225d565b50506000910152565b6000825161229081846020870161225a565b9190910192915050565b634e487b7160e01b600052603160045260246000fd5b60208152600082518060208401526122cf81604085016020870161225a565b601f01601f1916919091016040019291505056fe360894a13ba1a3210667c828492db98dca3e2076cc3735a920a3ca505d382bbc416464726573733a206c6f772d6c6576656c2064656c65676174652063616c6c206661696c6564a26469706673582212207bdcb79e8ab5f76056307764d45f71976c8743ec3f2a09badc0b612bf94c14fd64736f6c63430008100033",
  "linkReferences": {},
  "deployedLinkReferences": {}
}