{
  "_format": "hh-sol-artifact-1",
  "contractName": "PostOffice",
  "sourceName": "contracts/PostOffice.sol",
  "abi": [
    {
      "inputs": [],
      "stateMutability": "nonpayable",
      "type": "constructor"
    },
    {
      "anonymous": false,
      "inputs": [
        {
          "indexed": false,
          "internalType": "address",
          "name": "previousAdmin",
          "type": "address"
        },
        {
          "indexed": false,
          "internalType": "address",
          "name": "newAdmin",
          "type": "address"
        }
      ],
      "name": "AdminChanged",
      "type": "event"
    },
    {
      "anonymous": false,
      "inputs": [
        {
          "indexed": true,
          "internalType": "address",
          "name": "beacon",
          "type": "address"
        }
      ],
      "name": "BeaconUpgraded",
      "type": "event"
    },
    {
      "anonymous": false,
      "inputs": [
        {
          "indexed": false,
          "internalType": "uint8",
          "name": "version",
          "type": "uint8"
        }
      ],
      "name": "Initialized",
      "type": "event"
    },
    {
      "anonymous": false,
      "inputs": [
        {
          "indexed": true,
          "internalType": "address",
          "name": "previousOwner",
          "type": "address"
        },
        {
          "indexed": true,
          "internalType": "address",
          "name": "newOwner",
          "type": "address"
        }
      ],
      "name": "OwnershipTransferred",
      "type": "event"
    },
    {
      "anonymous": false,
      "inputs": [
        {
          "indexed": true,
          "internalType": "address",
          "name": "implementation",
          "type": "address"
        }
      ],
      "name": "Upgraded",
      "type": "event"
    },
    {
      "anonymous": false,
      "inputs": [
        {
          "indexed": false,
          "internalType": "enum IPostOffice.InboxEventType",
          "name": "eventType",
          "type": "uint8"
        },
        {
          "indexed": false,
          "internalType": "address",
          "name": "operator",
          "type": "address"
        },
        {
          "indexed": false,
          "internalType": "uint256",
          "name": "ownerKeyId",
          "type": "uint256"
        },
        {
          "indexed": false,
          "internalType": "address",
          "name": "inbox",
          "type": "address"
        }
      ],
      "name": "addressRegistrationEvent",
      "type": "event"
    },
    {
      "inputs": [
        {
          "internalType": "uint256",
          "name": "ownerKeyId",
          "type": "uint256"
        },
        {
          "internalType": "address payable",
          "name": "inbox",
          "type": "address"
        }
      ],
      "name": "deregisterInbox",
      "outputs": [],
      "stateMutability": "nonpayable",
      "type": "function"
    },
    {
      "inputs": [
        {
          "internalType": "uint256",
          "name": "ownerKeyId",
          "type": "uint256"
        }
      ],
      "name": "getInboxesForKey",
      "outputs": [
        {
          "internalType": "address[]",
          "name": "",
          "type": "address[]"
        }
      ],
      "stateMutability": "view",
      "type": "function"
    },
    {
      "inputs": [
        {
          "internalType": "uint256",
          "name": "keyId",
          "type": "uint256"
        }
      ],
      "name": "getKeyInbox",
      "outputs": [
        {
          "internalType": "address",
          "name": "",
          "type": "address"
        }
      ],
      "stateMutability": "view",
      "type": "function"
    },
    {
      "inputs": [
        {
          "internalType": "address",
          "name": "_Locksmith",
          "type": "address"
        }
      ],
      "name": "initialize",
      "outputs": [],
      "stateMutability": "nonpayable",
      "type": "function"
    },
    {
      "inputs": [],
      "name": "locksmith",
      "outputs": [
        {
          "internalType": "address",
          "name": "",
          "type": "address"
        }
      ],
      "stateMutability": "view",
      "type": "function"
    },
    {
      "inputs": [],
      "name": "owner",
      "outputs": [
        {
          "internalType": "address",
          "name": "",
          "type": "address"
        }
      ],
      "stateMutability": "view",
      "type": "function"
    },
    {
      "inputs": [],
      "name": "proxiableUUID",
      "outputs": [
        {
          "internalType": "bytes32",
          "name": "",
          "type": "bytes32"
        }
      ],
      "stateMutability": "view",
      "type": "function"
    },
    {
      "inputs": [
        {
          "internalType": "address payable",
          "name": "inbox",
          "type": "address"
        }
      ],
      "name": "registerInbox",
      "outputs": [],
      "stateMutability": "nonpayable",
      "type": "function"
    },
    {
      "inputs": [],
      "name": "renounceOwnership",
      "outputs": [],
      "stateMutability": "nonpayable",
      "type": "function"
    },
    {
      "inputs": [
        {
          "internalType": "address",
          "name": "newOwner",
          "type": "address"
        }
      ],
      "name": "transferOwnership",
      "outputs": [],
      "stateMutability": "nonpayable",
      "type": "function"
    },
    {
      "inputs": [
        {
          "internalType": "address",
          "name": "newImplementation",
          "type": "address"
        }
      ],
      "name": "upgradeTo",
      "outputs": [],
      "stateMutability": "nonpayable",
      "type": "function"
    },
    {
      "inputs": [
        {
          "internalType": "address",
          "name": "newImplementation",
          "type": "address"
        },
        {
          "internalType": "bytes",
          "name": "data",
          "type": "bytes"
        }
      ],
      "name": "upgradeToAndCall",
      "outputs": [],
      "stateMutability": "payable",
      "type": "function"
    }
  ],
  "bytecode": "0x60a06040523060805234801561001457600080fd5b5061001d610022565b6100e2565b600054610100900460ff161561008e5760405162461bcd60e51b815260206004820152602760248201527f496e697469616c697a61626c653a20636f6e747261637420697320696e697469604482015266616c697a696e6760c81b606482015260840160405180910390fd5b60005460ff90811610156100e0576000805460ff191660ff9081179091556040519081527f7f26b83ff96e1f2b6a682f133852f6798a09c465da95921460cefb38474024989060200160405180910390a15b565b608051611ad961011960003960008181610261015281816102aa01528181610669015281816106a9015261073c0152611ad96000f3fe6080604052600436106100a75760003560e01c8063715018a611610064578063715018a6146101975780638da5cb5b146101ac578063b80832b1146101ca578063b8fc6895146101f7578063c4d66de814610217578063f2fde38b1461023757600080fd5b806313fb817e146100ac5780633659cfe6146100e95780634aead64b1461010b5780634f1ef2861461012b57806352d1902d1461013e5780635f7cc4ab14610161575b600080fd5b3480156100b857600080fd5b5060c9546100cc906001600160a01b031681565b6040516001600160a01b0390911681526020015b60405180910390f35b3480156100f557600080fd5b50610109610104366004611590565b610257565b005b34801561011757600080fd5b506101096101263660046115ad565b61033f565b610109610139366004611624565b61065f565b34801561014a57600080fd5b5061015361072f565b6040519081526020016100e0565b34801561016d57600080fd5b506100cc61017c3660046116cc565b600090815260cb60205260409020546001600160a01b031690565b3480156101a357600080fd5b506101096107e2565b3480156101b857600080fd5b506033546001600160a01b03166100cc565b3480156101d657600080fd5b506101ea6101e53660046116cc565b6107f6565b6040516100e091906116e5565b34801561020357600080fd5b50610109610212366004611590565b610816565b34801561022357600080fd5b50610109610232366004611590565b610d17565b34801561024357600080fd5b50610109610252366004611590565b610e4b565b6001600160a01b037f00000000000000000000000000000000000000000000000000000000000000001630036102a85760405162461bcd60e51b815260040161029f90611732565b60405180910390fd5b7f00000000000000000000000000000000000000000000000000000000000000006001600160a01b03166102f1600080516020611a5d833981519152546001600160a01b031690565b6001600160a01b0316146103175760405162461bcd60e51b815260040161029f9061177e565b61032081610ec1565b6040805160008082526020820190925261033c91839190610ec9565b50565b6001600160a01b038116600090815260ca602052604090205460ff1661039e5760405162461bcd60e51b815260206004820152601460248201527326a4a9a9a4a723afa922a3a4a9aa2920aa24a7a760611b604482015260640161029f565b6000816001600160a01b031663af7c2a366040518163ffffffff1660e01b8152600401602060405180830381865afa1580156103de573d6000803e3d6000fd5b505050506040513d601f19601f8201168201806040525081019061040291906117ca565b600081815260cb60205260409020549091506001600160a01b038381169116146104615760405162461bcd60e51b815260206004820152601060248201526f434f52525550545f4944454e5449545960801b604482015260640161029f565b60c9546040805163b83ac19f60e01b815290516000926001600160a01b03169163b83ac19f9160048083019260209291908290030181865afa1580156104ab573d6000803e3d6000fd5b505050506040513d601f19601f820116820180604052508101906104cf91906117e3565b604051630f5d2cd560e11b815233600482015260248101869052600060448201526001600160a01b039190911690631eba59aa90606401602060405180830381865afa158015610523573d6000803e3d6000fd5b505050506040513d601f19601f8201168201806040525081019061054791906117ca565b116105835760405162461bcd60e51b815260206004820152600c60248201526b12d15657d393d517d211531160a21b604482015260640161029f565b600083815260cc6020526040902061059b9083611039565b6105e05760405162461bcd60e51b8152602060048201526016602482015275524547495354524154494f4e5f4e4f545f594f55525360501b604482015260640161029f565b6001600160a01b038216600090815260ca60209081526040808320805460ff1916905583835260cb9091529081902080546001600160a01b0319169055517f7f2c8d33649e33840160304ea5630d93fa959eddbeb3a66b3e4f4a31394fc0ab9061065290600190339087908790611800565b60405180910390a1505050565b6001600160a01b037f00000000000000000000000000000000000000000000000000000000000000001630036106a75760405162461bcd60e51b815260040161029f90611732565b7f00000000000000000000000000000000000000000000000000000000000000006001600160a01b03166106f0600080516020611a5d833981519152546001600160a01b031690565b6001600160a01b0316146107165760405162461bcd60e51b815260040161029f9061177e565b61071f82610ec1565b61072b82826001610ec9565b5050565b6000306001600160a01b037f000000000000000000000000000000000000000000000000000000000000000016146107cf5760405162461bcd60e51b815260206004820152603860248201527f555550535570677261646561626c653a206d757374206e6f742062652063616c60448201527f6c6564207468726f7567682064656c656761746563616c6c0000000000000000606482015260840161029f565b50600080516020611a5d83398151915290565b6107ea611055565b6107f460006110af565b565b600081815260cc6020526040902060609061081090611101565b92915050565b6001600160a01b038116600090815260ca602052604090205460ff161561087f5760405162461bcd60e51b815260206004820152601e60248201527f4455504c49434154455f414444524553535f524547495354524154494f4e0000604482015260640161029f565b6000816001600160a01b03166350b562766040518163ffffffff1660e01b8152600401602060405180830381865afa1580156108bf573d6000803e3d6000fd5b505050506040513d601f19601f820116820180604052508101906108e391906117ca565b90506000826001600160a01b031663af7c2a366040518163ffffffff1660e01b8152600401602060405180830381865afa158015610925573d6000803e3d6000fd5b505050506040513d601f19601f8201168201806040525081019061094991906117ca565b60c9546040516344766d2960e11b815260048101859052919250600091829182916001600160a01b03909116906388ecda5290602401600060405180830381865afa15801561099c573d6000803e3d6000fd5b505050506040513d6000823e601f3d908101601f191682016040526109c4919081019061185e565b5060c9546040516344766d2960e11b8152600481018a905294975091955093506000928392506001600160a01b03909116906388ecda5290602401600060405180830381865afa158015610a1c573d6000803e3d6000fd5b505050506040513d6000823e601f3d908101601f19168201604052610a44919081019061185e565b50509250509150848015610a555750825b610a925760405162461bcd60e51b815260206004820152600e60248201526d13d5d3915497d393d517d493d3d560921b604482015260640161029f565b818015610a9e57508381145b610ade5760405162461bcd60e51b8152602060048201526011602482015270494e56414c49445f494e424f585f4b455960781b604482015260640161029f565b60c9546040805163b83ac19f60e01b815290516000926001600160a01b03169163b83ac19f9160048083019260209291908290030181865afa158015610b28573d6000803e3d6000fd5b505050506040513d601f19601f82011682018060405250810190610b4c91906117e3565b604051630f5d2cd560e11b8152336004820152602481018a9052600060448201526001600160a01b039190911690631eba59aa90606401602060405180830381865afa158015610ba0573d6000803e3d6000fd5b505050506040513d601f19601f82011682018060405250810190610bc491906117ca565b11610c005760405162461bcd60e51b815260206004820152600c60248201526b12d15657d393d517d211531160a21b604482015260640161029f565b600086815260cb60205260409020546001600160a01b031615610c655760405162461bcd60e51b815260206004820152601a60248201527f4455504c49434154455f4b45595f524547495354524154494f4e000000000000604482015260640161029f565b6001600160a01b038816600090815260ca60209081526040808320805460ff1916600117905589835260cc9091529020610c9f908961110e565b610cab57610cab61193b565b600086815260cb602052604080822080546001600160a01b0319166001600160a01b038c16179055517f7f2c8d33649e33840160304ea5630d93fa959eddbeb3a66b3e4f4a31394fc0ab91610d059133908b908d90611800565b60405180910390a15050505050505050565b600054610100900460ff1615808015610d375750600054600160ff909116105b80610d515750303b158015610d51575060005460ff166001145b610db45760405162461bcd60e51b815260206004820152602e60248201527f496e697469616c697a61626c653a20636f6e747261637420697320616c72656160448201526d191e481a5b9a5d1a585b1a5e995960921b606482015260840161029f565b6000805460ff191660011790558015610dd7576000805461ff0019166101001790555b610ddf611123565b610de7611152565b60c980546001600160a01b0319166001600160a01b038416179055801561072b576000805461ff0019169055604051600181527f7f26b83ff96e1f2b6a682f133852f6798a09c465da95921460cefb38474024989060200160405180910390a15050565b610e53611055565b6001600160a01b038116610eb85760405162461bcd60e51b815260206004820152602660248201527f4f776e61626c653a206e6577206f776e657220697320746865207a65726f206160448201526564647265737360d01b606482015260840161029f565b61033c816110af565b61033c611055565b7f4910fdfa16fed3260ed0e7147f7cc6da11a60208b5b9406d12a635614ffd91435460ff1615610f0157610efc83611179565b505050565b826001600160a01b03166352d1902d6040518163ffffffff1660e01b8152600401602060405180830381865afa925050508015610f5b575060408051601f3d908101601f19168201909252610f58918101906117ca565b60015b610fbe5760405162461bcd60e51b815260206004820152602e60248201527f45524331393637557067726164653a206e657720696d706c656d656e7461746960448201526d6f6e206973206e6f74205555505360901b606482015260840161029f565b600080516020611a5d833981519152811461102d5760405162461bcd60e51b815260206004820152602960248201527f45524331393637557067726164653a20756e737570706f727465642070726f786044820152681a58589b195555525160ba1b606482015260840161029f565b50610efc838383611215565b600061104e836001600160a01b038416611240565b9392505050565b6033546001600160a01b031633146107f45760405162461bcd60e51b815260206004820181905260248201527f4f776e61626c653a2063616c6c6572206973206e6f7420746865206f776e6572604482015260640161029f565b603380546001600160a01b038381166001600160a01b0319831681179093556040519116919082907f8be0079c531659141344cd1fd0a4f28419497f9722a3daafe3b4186f6b6457e090600090a35050565b6060600061104e83611333565b600061104e836001600160a01b03841661138f565b600054610100900460ff1661114a5760405162461bcd60e51b815260040161029f90611951565b6107f46113de565b600054610100900460ff166107f45760405162461bcd60e51b815260040161029f90611951565b6001600160a01b0381163b6111e65760405162461bcd60e51b815260206004820152602d60248201527f455243313936373a206e657720696d706c656d656e746174696f6e206973206e60448201526c1bdd08184818dbdb9d1c9858dd609a1b606482015260840161029f565b600080516020611a5d83398151915280546001600160a01b0319166001600160a01b0392909216919091179055565b61121e8361140e565b60008251118061122b5750805b15610efc5761123a838361144e565b50505050565b6000818152600183016020526040812054801561132957600061126460018361199c565b85549091506000906112789060019061199c565b90508181146112dd576000866000018281548110611298576112986119bd565b90600052602060002001549050808760000184815481106112bb576112bb6119bd565b6000918252602080832090910192909255918252600188019052604090208390555b85548690806112ee576112ee6119d3565b600190038181906000526020600020016000905590558560010160008681526020019081526020016000206000905560019350505050610810565b6000915050610810565b60608160000180548060200260200160405190810160405280929190818152602001828054801561138357602002820191906000526020600020905b81548152602001906001019080831161136f575b50505050509050919050565b60008181526001830160205260408120546113d657508154600181810184556000848152602080822090930184905584548482528286019093526040902091909155610810565b506000610810565b600054610100900460ff166114055760405162461bcd60e51b815260040161029f90611951565b6107f4336110af565b61141781611179565b6040516001600160a01b038216907fbc7cd75a20ee27fd9adebab32041f755214dbc6bffa90cc0225b39da2e5c2d3b90600090a250565b60606001600160a01b0383163b6114b65760405162461bcd60e51b815260206004820152602660248201527f416464726573733a2064656c65676174652063616c6c20746f206e6f6e2d636f6044820152651b9d1c9858dd60d21b606482015260840161029f565b600080846001600160a01b0316846040516114d19190611a0d565b600060405180830381855af49150503d806000811461150c576040519150601f19603f3d011682016040523d82523d6000602084013e611511565b606091505b50915091506115398282604051806060016040528060278152602001611a7d60279139611542565b95945050505050565b6060831561155157508161104e565b8251156115615782518084602001fd5b8160405162461bcd60e51b815260040161029f9190611a29565b6001600160a01b038116811461033c57600080fd5b6000602082840312156115a257600080fd5b813561104e8161157b565b600080604083850312156115c057600080fd5b8235915060208301356115d28161157b565b809150509250929050565b634e487b7160e01b600052604160045260246000fd5b604051601f8201601f1916810167ffffffffffffffff8111828210171561161c5761161c6115dd565b604052919050565b6000806040838503121561163757600080fd5b82356116428161157b565b915060208381013567ffffffffffffffff8082111561166057600080fd5b818601915086601f83011261167457600080fd5b813581811115611686576116866115dd565b611698601f8201601f191685016115f3565b915080825287848285010111156116ae57600080fd5b80848401858401376000848284010152508093505050509250929050565b6000602082840312156116de57600080fd5b5035919050565b6020808252825182820181905260009190848201906040850190845b818110156117265783516001600160a01b031683529284019291840191600101611701565b50909695505050505050565b6020808252602c908201527f46756e6374696f6e206d7573742062652063616c6c6564207468726f7567682060408201526b19195b1959d85d1958d85b1b60a21b606082015260800190565b6020808252602c908201527f46756e6374696f6e206d7573742062652063616c6c6564207468726f7567682060408201526b6163746976652070726f787960a01b606082015260800190565b6000602082840312156117dc57600080fd5b5051919050565b6000602082840312156117f557600080fd5b815161104e8161157b565b608081016002861061182257634e487b7160e01b600052602160045260246000fd5b9481526001600160a01b039384166020820152604081019290925290911660609091015290565b8051801515811461185957600080fd5b919050565b600080600080600060a0868803121561187657600080fd5b61187f86611849565b945060208087015194506040870151935061189c60608801611849565b9250608087015167ffffffffffffffff808211156118b957600080fd5b818901915089601f8301126118cd57600080fd5b8151818111156118df576118df6115dd565b8060051b91506118f08483016115f3565b818152918301840191848101908c84111561190a57600080fd5b938501935b838510156119285784518252938501939085019061190f565b8096505050505050509295509295909350565b634e487b7160e01b600052600160045260246000fd5b6020808252602b908201527f496e697469616c697a61626c653a20636f6e7472616374206973206e6f74206960408201526a6e697469616c697a696e6760a81b606082015260800190565b8181038181111561081057634e487b7160e01b600052601160045260246000fd5b634e487b7160e01b600052603260045260246000fd5b634e487b7160e01b600052603160045260246000fd5b60005b83811015611a045781810151838201526020016119ec565b50506000910152565b60008251611a1f8184602087016119e9565b9190910192915050565b6020815260008251806020840152611a488160408501602087016119e9565b601f01601f1916919091016040019291505056fe360894a13ba1a3210667c828492db98dca3e2076cc3735a920a3ca505d382bbc416464726573733a206c6f772d6c6576656c2064656c65676174652063616c6c206661696c6564a264697066735822122080ee202852afb37bf531e98b63e0ac22175840860696c5ece04a50d60d3ce55564736f6c63430008100033",
  "linkReferences": {},
  "deployedLinkReferences": {}
}