{
  "_format": "hh-sol-artifact-1",
  "contractName": "TrustEventLog",
  "sourceName": "contracts/TrustEventLog.sol",
  "abi": [
    {
      "inputs": [],
      "stateMutability": "nonpayable",
      "type": "constructor"
    },
    {
      "anonymous": false,
      "inputs": [
        {
          "indexed": false,
          "internalType": "address",
          "name": "previousAdmin",
          "type": "address"
        },
        {
          "indexed": false,
          "internalType": "address",
          "name": "newAdmin",
          "type": "address"
        }
      ],
      "name": "AdminChanged",
      "type": "event"
    },
    {
      "anonymous": false,
      "inputs": [
        {
          "indexed": true,
          "internalType": "address",
          "name": "beacon",
          "type": "address"
        }
      ],
      "name": "BeaconUpgraded",
      "type": "event"
    },
    {
      "anonymous": false,
      "inputs": [
        {
          "indexed": false,
          "internalType": "uint8",
          "name": "version",
          "type": "uint8"
        }
      ],
      "name": "Initialized",
      "type": "event"
    },
    {
      "anonymous": false,
      "inputs": [
        {
          "indexed": true,
          "internalType": "address",
          "name": "previousOwner",
          "type": "address"
        },
        {
          "indexed": true,
          "internalType": "address",
          "name": "newOwner",
          "type": "address"
        }
      ],
      "name": "OwnershipTransferred",
      "type": "event"
    },
    {
      "anonymous": false,
      "inputs": [
        {
          "indexed": true,
          "internalType": "address",
          "name": "implementation",
          "type": "address"
        }
      ],
      "name": "Upgraded",
      "type": "event"
    },
    {
      "anonymous": false,
      "inputs": [
        {
          "indexed": false,
          "internalType": "address",
          "name": "dispatcher",
          "type": "address"
        },
        {
          "indexed": false,
          "internalType": "bytes32",
          "name": "eventHash",
          "type": "bytes32"
        }
      ],
      "name": "trustEventLogged",
      "type": "event"
    },
    {
      "anonymous": false,
      "inputs": [
        {
          "indexed": false,
          "internalType": "address",
          "name": "dispatcher",
          "type": "address"
        },
        {
          "indexed": false,
          "internalType": "uint256",
          "name": "trustId",
          "type": "uint256"
        },
        {
          "indexed": false,
          "internalType": "bytes32",
          "name": "eventHash",
          "type": "bytes32"
        },
        {
          "indexed": false,
          "internalType": "bytes32",
          "name": "eventDescription",
          "type": "bytes32"
        }
      ],
      "name": "trustEventRegistered",
      "type": "event"
    },
    {
      "inputs": [
        {
          "internalType": "bytes32",
          "name": "",
          "type": "bytes32"
        }
      ],
      "name": "eventDescriptions",
      "outputs": [
        {
          "internalType": "bytes32",
          "name": "",
          "type": "bytes32"
        }
      ],
      "stateMutability": "view",
      "type": "function"
    },
    {
      "inputs": [
        {
          "internalType": "bytes32",
          "name": "",
          "type": "bytes32"
        }
      ],
      "name": "eventDispatchers",
      "outputs": [
        {
          "internalType": "address",
          "name": "",
          "type": "address"
        }
      ],
      "stateMutability": "view",
      "type": "function"
    },
    {
      "inputs": [
        {
          "internalType": "bytes32",
          "name": "",
          "type": "bytes32"
        }
      ],
      "name": "firedEvents",
      "outputs": [
        {
          "internalType": "bool",
          "name": "",
          "type": "bool"
        }
      ],
      "stateMutability": "view",
      "type": "function"
    },
    {
      "inputs": [
        {
          "internalType": "bytes32",
          "name": "eventHash",
          "type": "bytes32"
        }
      ],
      "name": "getEventInfo",
      "outputs": [
        {
          "internalType": "bool",
          "name": "",
          "type": "bool"
        },
        {
          "internalType": "bytes32",
          "name": "",
          "type": "bytes32"
        },
        {
          "internalType": "address",
          "name": "",
          "type": "address"
        },
        {
          "internalType": "bool",
          "name": "",
          "type": "bool"
        }
      ],
      "stateMutability": "view",
      "type": "function"
    },
    {
      "inputs": [
        {
          "internalType": "uint256",
          "name": "trustId",
          "type": "uint256"
        },
        {
          "internalType": "address",
          "name": "dispatcher",
          "type": "address"
        }
      ],
      "name": "getRegisteredTrustEvents",
      "outputs": [
        {
          "internalType": "bytes32[]",
          "name": "",
          "type": "bytes32[]"
        }
      ],
      "stateMutability": "view",
      "type": "function"
    },
    {
      "inputs": [
        {
          "internalType": "address",
          "name": "_Notary",
          "type": "address"
        }
      ],
      "name": "initialize",
      "outputs": [],
      "stateMutability": "nonpayable",
      "type": "function"
    },
    {
      "inputs": [
        {
          "internalType": "bytes32",
          "name": "eventHash",
          "type": "bytes32"
        }
      ],
      "name": "logTrustEvent",
      "outputs": [],
      "stateMutability": "nonpayable",
      "type": "function"
    },
    {
      "inputs": [],
      "name": "notary",
      "outputs": [
        {
          "internalType": "address",
          "name": "",
          "type": "address"
        }
      ],
      "stateMutability": "view",
      "type": "function"
    },
    {
      "inputs": [],
      "name": "owner",
      "outputs": [
        {
          "internalType": "address",
          "name": "",
          "type": "address"
        }
      ],
      "stateMutability": "view",
      "type": "function"
    },
    {
      "inputs": [],
      "name": "proxiableUUID",
      "outputs": [
        {
          "internalType": "bytes32",
          "name": "",
          "type": "bytes32"
        }
      ],
      "stateMutability": "view",
      "type": "function"
    },
    {
      "inputs": [
        {
          "internalType": "uint256",
          "name": "trustId",
          "type": "uint256"
        },
        {
          "internalType": "bytes32",
          "name": "eventHash",
          "type": "bytes32"
        },
        {
          "internalType": "bytes32",
          "name": "description",
          "type": "bytes32"
        }
      ],
      "name": "registerTrustEvent",
      "outputs": [
        {
          "internalType": "bytes32",
          "name": "",
          "type": "bytes32"
        }
      ],
      "stateMutability": "nonpayable",
      "type": "function"
    },
    {
      "inputs": [],
      "name": "renounceOwnership",
      "outputs": [],
      "stateMutability": "nonpayable",
      "type": "function"
    },
    {
      "inputs": [
        {
          "internalType": "address",
          "name": "newOwner",
          "type": "address"
        }
      ],
      "name": "transferOwnership",
      "outputs": [],
      "stateMutability": "nonpayable",
      "type": "function"
    },
    {
      "inputs": [
        {
          "internalType": "address",
          "name": "newImplementation",
          "type": "address"
        }
      ],
      "name": "upgradeTo",
      "outputs": [],
      "stateMutability": "nonpayable",
      "type": "function"
    },
    {
      "inputs": [
        {
          "internalType": "address",
          "name": "newImplementation",
          "type": "address"
        },
        {
          "internalType": "bytes",
          "name": "data",
          "type": "bytes"
        }
      ],
      "name": "upgradeToAndCall",
      "outputs": [],
      "stateMutability": "payable",
      "type": "function"
    }
  ],
  "bytecode": "0x60a06040523060805234801561001457600080fd5b5061001d610022565b6100e2565b600054610100900460ff161561008e5760405162461bcd60e51b815260206004820152602760248201527f496e697469616c697a61626c653a20636f6e747261637420697320696e697469604482015266616c697a696e6760c81b606482015260840160405180910390fd5b60005460ff90811610156100e0576000805460ff191660ff9081179091556040519081527f7f26b83ff96e1f2b6a682f133852f6798a09c465da95921460cefb38474024989060200160405180910390a15b565b6080516113d361011960003960008181610395015281816103de0152818161047d015281816104bd015261055001526113d36000f3fe6080604052600436106100e85760003560e01c80638da5cb5b1161008a578063c4d66de811610059578063c4d66de81461028b578063e423f900146102ab578063f2fde38b146102e1578063f765b6b11461030157600080fd5b80638da5cb5b146101ec5780638fd8149d1461021e5780639d54c79d1461024b578063b5aac3641461026b57600080fd5b80634f1ef286116100c65780634f1ef2861461018f57806352d1902d146101a2578063715018a6146101b75780638942e585146101cc57600080fd5b80633659cfe6146100ed5780634c80ebd61461010f5780634ded591114610154575b600080fd5b3480156100f957600080fd5b5061010d610108366004611029565b61038b565b005b34801561011b57600080fd5b5061013f61012a366004611044565b60ce6020526000908152604090205460ff1681565b60405190151581526020015b60405180910390f35b34801561016057600080fd5b5061018161016f366004611044565b60cb6020526000908152604090205481565b60405190815260200161014b565b61010d61019d366004611073565b610473565b3480156101ae57600080fd5b50610181610543565b3480156101c357600080fd5b5061010d6105f6565b3480156101d857600080fd5b506101816101e7366004611135565b61060a565b3480156101f857600080fd5b506033546001600160a01b03165b6040516001600160a01b03909116815260200161014b565b34801561022a57600080fd5b5061023e610239366004611161565b6107e7565b60405161014b919061118d565b34801561025757600080fd5b5060c954610206906001600160a01b031681565b34801561027757600080fd5b5061010d610286366004611044565b610885565b34801561029757600080fd5b5061010d6102a6366004611029565b610985565b3480156102b757600080fd5b506102066102c6366004611044565b60ca602052600090815260409020546001600160a01b031681565b3480156102ed57600080fd5b5061010d6102fc366004611029565b610ab9565b34801561030d57600080fd5b5061035861031c366004611044565b600081815260ca602090815260408083205460cb83528184205460ce9093529220546001600160a01b03929092168015159260ff169193509193565b60405161014b9493929190931515845260208401929092526001600160a01b031660408301521515606082015260800190565b6001600160a01b037f00000000000000000000000000000000000000000000000000000000000000001630036103dc5760405162461bcd60e51b81526004016103d3906111d1565b60405180910390fd5b7f00000000000000000000000000000000000000000000000000000000000000006001600160a01b0316610425600080516020611357833981519152546001600160a01b031690565b6001600160a01b03161461044b5760405162461bcd60e51b81526004016103d39061121d565b61045481610b2f565b6040805160008082526020820190925261047091839190610b37565b50565b6001600160a01b037f00000000000000000000000000000000000000000000000000000000000000001630036104bb5760405162461bcd60e51b81526004016103d3906111d1565b7f00000000000000000000000000000000000000000000000000000000000000006001600160a01b0316610504600080516020611357833981519152546001600160a01b031690565b6001600160a01b03161461052a5760405162461bcd60e51b81526004016103d39061121d565b61053382610b2f565b61053f82826001610b37565b5050565b6000306001600160a01b037f000000000000000000000000000000000000000000000000000000000000000016146105e35760405162461bcd60e51b815260206004820152603860248201527f555550535570677261646561626c653a206d757374206e6f742062652063616c60448201527f6c6564207468726f7567682064656c656761746563616c6c000000000000000060648201526084016103d3565b5060008051602061135783398151915290565b6105fe610ca7565b6106086000610d01565b565b60408051336020820152908101839052600090819060600160408051808303601f1901815290829052805160209091012060c95463bc231f2d60e01b83523360048401526024830188905260448301829052606483018690529092506001600160a01b03169063bc231f2d90608401600060405180830381600087803b15801561069357600080fd5b505af11580156106a7573d6000803e3d6000fd5b505050600082815260ca60205260409020546001600160a01b031615905061070a5760405162461bcd60e51b8152602060048201526016602482015275222aa82624a1a0aa22afa922a3a4a9aa2920aa24a7a760511b60448201526064016103d3565b600081815260ce602052604090205460ff161561072957610729611269565b600081815260ca6020908152604080832080546001600160a01b0319163390811790915560cb835281842087905588845260cc83528184208054600181810183559186528486200186905589855260cd845282852082865284528285208054918201815585529383902090930184905580519283529082018790528101829052606081018490527fbaff4b344f8408743d4705172cdbc7bd34bd12c0129d979468688500e40040ba9060800160405180910390a190505b9392505050565b60606001600160a01b0382161561081f57600083815260cd602090815260408083206001600160a01b0386168452909152902061082e565b600083815260cc602052604090205b80548060200260200160405190810160405280929190818152602001828054801561087857602002820191906000526020600020905b815481526020019060010190808311610864575b5050505050905092915050565b600081815260ca60205260409020546001600160a01b031633146108de5760405162461bcd60e51b815260206004820152601060248201526f0929cac82989288be8892a6a082a886960831b60448201526064016103d3565b600081815260ce602052604090205460ff161561092f5760405162461bcd60e51b815260206004820152600f60248201526e111554131250d0551157d155915395608a1b60448201526064016103d3565b600081815260ce6020908152604091829020805460ff1916600117905581513381529081018390527ff4ae467b442ee74c8b8a48afbab450ed55d390df103f9bf7632dd32c25c09f61910160405180910390a150565b600054610100900460ff16158080156109a55750600054600160ff909116105b806109bf5750303b1580156109bf575060005460ff166001145b610a225760405162461bcd60e51b815260206004820152602e60248201527f496e697469616c697a61626c653a20636f6e747261637420697320616c72656160448201526d191e481a5b9a5d1a585b1a5e995960921b60648201526084016103d3565b6000805460ff191660011790558015610a45576000805461ff0019166101001790555b610a4d610d53565b610a55610d82565b60c980546001600160a01b0319166001600160a01b038416179055801561053f576000805461ff0019169055604051600181527f7f26b83ff96e1f2b6a682f133852f6798a09c465da95921460cefb38474024989060200160405180910390a15050565b610ac1610ca7565b6001600160a01b038116610b265760405162461bcd60e51b815260206004820152602660248201527f4f776e61626c653a206e6577206f776e657220697320746865207a65726f206160448201526564647265737360d01b60648201526084016103d3565b61047081610d01565b610470610ca7565b7f4910fdfa16fed3260ed0e7147f7cc6da11a60208b5b9406d12a635614ffd91435460ff1615610b6f57610b6a83610da9565b505050565b826001600160a01b03166352d1902d6040518163ffffffff1660e01b8152600401602060405180830381865afa925050508015610bc9575060408051601f3d908101601f19168201909252610bc69181019061127f565b60015b610c2c5760405162461bcd60e51b815260206004820152602e60248201527f45524331393637557067726164653a206e657720696d706c656d656e7461746960448201526d6f6e206973206e6f74205555505360901b60648201526084016103d3565b6000805160206113578339815191528114610c9b5760405162461bcd60e51b815260206004820152602960248201527f45524331393637557067726164653a20756e737570706f727465642070726f786044820152681a58589b195555525160ba1b60648201526084016103d3565b50610b6a838383610e45565b6033546001600160a01b031633146106085760405162461bcd60e51b815260206004820181905260248201527f4f776e61626c653a2063616c6c6572206973206e6f7420746865206f776e657260448201526064016103d3565b603380546001600160a01b038381166001600160a01b0319831681179093556040519116919082907f8be0079c531659141344cd1fd0a4f28419497f9722a3daafe3b4186f6b6457e090600090a35050565b600054610100900460ff16610d7a5760405162461bcd60e51b81526004016103d390611298565b610608610e70565b600054610100900460ff166106085760405162461bcd60e51b81526004016103d390611298565b6001600160a01b0381163b610e165760405162461bcd60e51b815260206004820152602d60248201527f455243313936373a206e657720696d706c656d656e746174696f6e206973206e60448201526c1bdd08184818dbdb9d1c9858dd609a1b60648201526084016103d3565b60008051602061135783398151915280546001600160a01b0319166001600160a01b0392909216919091179055565b610e4e83610ea0565b600082511180610e5b5750805b15610b6a57610e6a8383610ee0565b50505050565b600054610100900460ff16610e975760405162461bcd60e51b81526004016103d390611298565b61060833610d01565b610ea981610da9565b6040516001600160a01b038216907fbc7cd75a20ee27fd9adebab32041f755214dbc6bffa90cc0225b39da2e5c2d3b90600090a250565b60606001600160a01b0383163b610f485760405162461bcd60e51b815260206004820152602660248201527f416464726573733a2064656c65676174652063616c6c20746f206e6f6e2d636f6044820152651b9d1c9858dd60d21b60648201526084016103d3565b600080846001600160a01b031684604051610f639190611307565b600060405180830381855af49150503d8060008114610f9e576040519150601f19603f3d011682016040523d82523d6000602084013e610fa3565b606091505b5091509150610fcb828260405180606001604052806027815260200161137760279139610fd4565b95945050505050565b60608315610fe35750816107e0565b825115610ff35782518084602001fd5b8160405162461bcd60e51b81526004016103d39190611323565b80356001600160a01b038116811461102457600080fd5b919050565b60006020828403121561103b57600080fd5b6107e08261100d565b60006020828403121561105657600080fd5b5035919050565b634e487b7160e01b600052604160045260246000fd5b6000806040838503121561108657600080fd5b61108f8361100d565b9150602083013567ffffffffffffffff808211156110ac57600080fd5b818501915085601f8301126110c057600080fd5b8135818111156110d2576110d261105d565b604051601f8201601f19908116603f011681019083821181831017156110fa576110fa61105d565b8160405282815288602084870101111561111357600080fd5b8260208601602083013760006020848301015280955050505050509250929050565b60008060006060848603121561114a57600080fd5b505081359360208301359350604090920135919050565b6000806040838503121561117457600080fd5b823591506111846020840161100d565b90509250929050565b6020808252825182820181905260009190848201906040850190845b818110156111c5578351835292840192918401916001016111a9565b50909695505050505050565b6020808252602c908201527f46756e6374696f6e206d7573742062652063616c6c6564207468726f7567682060408201526b19195b1959d85d1958d85b1b60a21b606082015260800190565b6020808252602c908201527f46756e6374696f6e206d7573742062652063616c6c6564207468726f7567682060408201526b6163746976652070726f787960a01b606082015260800190565b634e487b7160e01b600052600160045260246000fd5b60006020828403121561129157600080fd5b5051919050565b6020808252602b908201527f496e697469616c697a61626c653a20636f6e7472616374206973206e6f74206960408201526a6e697469616c697a696e6760a81b606082015260800190565b60005b838110156112fe5781810151838201526020016112e6565b50506000910152565b600082516113198184602087016112e3565b9190910192915050565b60208152600082518060208401526113428160408501602087016112e3565b601f01601f1916919091016040019291505056fe360894a13ba1a3210667c828492db98dca3e2076cc3735a920a3ca505d382bbc416464726573733a206c6f772d6c6576656c2064656c65676174652063616c6c206661696c6564a26469706673582212202b3061d823eaabf4fc7202316df8a736d312fa1fbed6a02bed941c2eb5541f4664736f6c63430008100033",
  "linkReferences": {},
  "deployedLinkReferences": {}
}